{
  "contractName": "TellorFund",
  "abi": [
    {
      "constant": false,
      "inputs": [
        {
          "name": "_requestId",
          "type": "uint256"
        }
      ],
      "name": "addTipWithEther",
      "outputs": [],
      "payable": true,
      "stateMutability": "payable",
      "type": "function"
    },
    {
      "constant": true,
      "inputs": [
        {
          "name": "_requestId",
          "type": "uint256"
        }
      ],
      "name": "getCurrentValue",
      "outputs": [
        {
          "name": "ifRetrieve",
          "type": "bool"
        },
        {
          "name": "value",
          "type": "uint256"
        },
        {
          "name": "_timestampRetrieved",
          "type": "uint256"
        }
      ],
      "payable": false,
      "stateMutability": "view",
      "type": "function"
    },
    {
      "constant": false,
      "inputs": [
        {
          "name": "_request",
          "type": "string"
        },
        {
          "name": "_symbol",
          "type": "string"
        },
        {
          "name": "_granularity",
          "type": "uint256"
        },
        {
          "name": "_tip",
          "type": "uint256"
        }
      ],
      "name": "requestData",
      "outputs": [],
      "payable": false,
      "stateMutability": "nonpayable",
      "type": "function"
    },
    {
      "constant": true,
      "inputs": [
        {
          "name": "_requestId",
          "type": "uint256"
        },
        {
          "name": "_timestamp",
          "type": "uint256"
        }
      ],
      "name": "getFirstVerifiedDataAfter",
      "outputs": [
        {
          "name": "",
          "type": "bool"
        },
        {
          "name": "",
          "type": "uint256"
        },
        {
          "name": "_timestampRetrieved",
          "type": "uint256"
        }
      ],
      "payable": false,
      "stateMutability": "view",
      "type": "function"
    },
    {
      "constant": false,
      "inputs": [
        {
          "name": "_requestId",
          "type": "uint256"
        },
        {
          "name": "_tip",
          "type": "uint256"
        }
      ],
      "name": "addTip",
      "outputs": [],
      "payable": false,
      "stateMutability": "nonpayable",
      "type": "function"
    },
    {
      "constant": true,
      "inputs": [],
      "name": "owner",
      "outputs": [
        {
          "name": "",
          "type": "address"
        }
      ],
      "payable": false,
      "stateMutability": "view",
      "type": "function"
    },
    {
      "constant": false,
      "inputs": [
        {
          "name": "_userContract",
          "type": "address"
        }
      ],
      "name": "setUserContract",
      "outputs": [],
      "payable": false,
      "stateMutability": "nonpayable",
      "type": "function"
    },
    {
      "constant": false,
      "inputs": [
        {
          "name": "_request",
          "type": "string"
        },
        {
          "name": "_symbol",
          "type": "string"
        },
        {
          "name": "_granularity",
          "type": "uint256"
        }
      ],
      "name": "requestDataWithEther",
      "outputs": [],
      "payable": true,
      "stateMutability": "payable",
      "type": "function"
    },
    {
      "constant": true,
      "inputs": [
        {
          "name": "_bytesId",
          "type": "bytes32"
        }
      ],
      "name": "resultFor",
      "outputs": [
        {
          "name": "timestamp",
          "type": "uint256"
        },
        {
          "name": "outcome",
          "type": "int256"
        },
        {
          "name": "status",
          "type": "int256"
        }
      ],
      "payable": false,
      "stateMutability": "view",
      "type": "function"
    },
    {
      "constant": true,
      "inputs": [
        {
          "name": "_requestId",
          "type": "uint256"
        },
        {
          "name": "_timestamp",
          "type": "uint256"
        }
      ],
      "name": "getAnyDataAfter",
      "outputs": [
        {
          "name": "_ifRetrieve",
          "type": "bool"
        },
        {
          "name": "_value",
          "type": "uint256"
        },
        {
          "name": "_timestampRetrieved",
          "type": "uint256"
        }
      ],
      "payable": false,
      "stateMutability": "view",
      "type": "function"
    },
    {
      "constant": false,
      "inputs": [
        {
          "name": "_newOwner",
          "type": "address"
        }
      ],
      "name": "transferOwnership",
      "outputs": [],
      "payable": false,
      "stateMutability": "nonpayable",
      "type": "function"
    },
    {
      "inputs": [
        {
          "name": "_userContract",
          "type": "address"
        }
      ],
      "payable": false,
      "stateMutability": "nonpayable",
      "type": "constructor"
    },
    {
      "anonymous": false,
      "inputs": [
        {
          "indexed": false,
          "name": "_id",
          "type": "uint256"
        },
        {
          "indexed": false,
          "name": "_title",
          "type": "string"
        },
        {
          "indexed": false,
          "name": "_desc",
          "type": "string"
        },
        {
          "indexed": false,
          "name": "_minAmountUSD",
          "type": "uint256"
        },
        {
          "indexed": false,
          "name": "_daystilComplete",
          "type": "uint256"
        }
      ],
      "name": "NewProposal",
      "type": "event"
    },
    {
      "anonymous": false,
      "inputs": [
        {
          "indexed": false,
          "name": "_id",
          "type": "uint256"
        },
        {
          "indexed": false,
          "name": "_funder",
          "type": "address"
        },
        {
          "indexed": false,
          "name": "_amount",
          "type": "uint256"
        }
      ],
      "name": "ProposalFunded",
      "type": "event"
    },
    {
      "anonymous": false,
      "inputs": [
        {
          "indexed": false,
          "name": "_id",
          "type": "uint256"
        },
        {
          "indexed": false,
          "name": "_funded",
          "type": "bool"
        },
        {
          "indexed": false,
          "name": "_amount",
          "type": "uint256"
        }
      ],
      "name": "ProposalClosed",
      "type": "event"
    },
    {
      "anonymous": false,
      "inputs": [
        {
          "indexed": false,
          "name": "_previousOwner",
          "type": "address"
        },
        {
          "indexed": false,
          "name": "_newOwner",
          "type": "address"
        }
      ],
      "name": "OwnershipTransferred",
      "type": "event"
    },
    {
      "constant": false,
      "inputs": [
        {
          "name": "_title",
          "type": "string"
        },
        {
          "name": "_desc",
          "type": "string"
        },
        {
          "name": "_minAmountUSD",
          "type": "uint256"
        },
        {
          "name": "_daystilComplete",
          "type": "uint256"
        }
      ],
      "name": "createProposal",
      "outputs": [
        {
          "name": "_id",
          "type": "uint256"
        }
      ],
      "payable": false,
      "stateMutability": "nonpayable",
      "type": "function"
    },
    {
      "constant": false,
      "inputs": [
        {
          "name": "_id",
          "type": "uint256"
        },
        {
          "name": "_amountTRB",
          "type": "uint256"
        }
      ],
      "name": "fund",
      "outputs": [],
      "payable": false,
      "stateMutability": "nonpayable",
      "type": "function"
    },
    {
      "constant": false,
      "inputs": [
        {
          "name": "_id",
          "type": "uint256"
        }
      ],
      "name": "closeProposal",
      "outputs": [],
      "payable": false,
      "stateMutability": "nonpayable",
      "type": "function"
    },
    {
      "constant": false,
      "inputs": [],
      "name": "withdrawMoney",
      "outputs": [],
      "payable": false,
      "stateMutability": "nonpayable",
      "type": "function"
    },
    {
      "constant": true,
      "inputs": [],
      "name": "getAllOpenProposals",
      "outputs": [
        {
          "name": "",
          "type": "uint256[]"
        }
      ],
      "payable": false,
      "stateMutability": "view",
      "type": "function"
    },
    {
      "constant": true,
      "inputs": [
        {
          "name": "_id",
          "type": "uint256"
        }
      ],
      "name": "getProposalById",
      "outputs": [
        {
          "name": "",
          "type": "string"
        },
        {
          "name": "",
          "type": "string"
        },
        {
          "name": "",
          "type": "address"
        },
        {
          "name": "",
          "type": "uint256"
        },
        {
          "name": "",
          "type": "uint256"
        },
        {
          "name": "",
          "type": "uint256"
        },
        {
          "name": "",
          "type": "bool"
        },
        {
          "name": "",
          "type": "bool"
        }
      ],
      "payable": false,
      "stateMutability": "view",
      "type": "function"
    },
    {
      "constant": true,
      "inputs": [
        {
          "name": "_funder",
          "type": "address"
        }
      ],
      "name": "getProposalsByAddress",
      "outputs": [
        {
          "name": "propArray",
          "type": "uint256[]"
        },
        {
          "name": "amountArray",
          "type": "uint256[]"
        }
      ],
      "payable": false,
      "stateMutability": "view",
      "type": "function"
    },
    {
      "constant": true,
      "inputs": [
        {
          "name": "_id",
          "type": "uint256"
        }
      ],
      "name": "getAddressesById",
      "outputs": [
        {
          "name": "addArray",
          "type": "address[]"
        }
      ],
      "payable": false,
      "stateMutability": "view",
      "type": "function"
    },
    {
      "constant": true,
      "inputs": [
        {
          "name": "_id",
          "type": "uint256"
        }
      ],
      "name": "percentFunded",
      "outputs": [
        {
          "name": "",
          "type": "uint256"
        }
      ],
      "payable": false,
      "stateMutability": "view",
      "type": "function"
    },
    {
      "constant": true,
      "inputs": [],
      "name": "viewTellorPrice",
      "outputs": [
        {
          "name": "",
          "type": "uint256"
        }
      ],
      "payable": false,
      "stateMutability": "view",
      "type": "function"
    }
  ],
  "bytecode": "0x60806040523480156200001157600080fd5b50604051602080620032dd833981018060405260208110156200003357600080fd5b810190808051906020019092919050505080806000806101000a81548173ffffffffffffffffffffffffffffffffffffffff021916908373ffffffffffffffffffffffffffffffffffffffff16021790555033600160006101000a81548173ffffffffffffffffffffffffffffffffffffffff021916908373ffffffffffffffffffffffffffffffffffffffff1602179055505060038054809190600101620000dd9190620000e5565b50506200013c565b8154818355818111156200010f578183600052602060002091820191016200010e919062000114565b5b505050565b6200013991905b80821115620001355760008160009055506001016200011b565b5090565b90565b613191806200014c6000396000f3fe60806040526004361061012a5760003560e01c8063752d49a1116100ab578063ac4460021161006f578063ac446002146108da578063bb19e296146108f1578063be407cf2146109c9578063d09cc57e14610a59578063d269a83c14610ab6578063f2fde38b14610b215761012a565b8063752d49a114610759578063811ad5e31461079e5780638da5cb5b146107ed578063a1206d4e14610844578063a65e2cfd146108955761012a565b80633ed2ab0a116100f25780633ed2ab0a146103ad5780633fcad9641461049b5780633fff2816146104fc5780635f059f3e146105eb5780636b5e1766146106565761012a565b80630386a0161461012f57806316c039c71461016a5780632639e0b0146101955780633656de21146101c35780633aedd66114610341575b600080fd5b34801561013b57600080fd5b506101686004803603602081101561015257600080fd5b8101908080359060200190929190505050610b72565b005b34801561017657600080fd5b5061017f610fb1565b6040518082815260200191505060405180910390f35b6101c1600480360360208110156101ab57600080fd5b8101908080359060200190929190505050610fd8565b005b3480156101cf57600080fd5b506101fc600480360360208110156101e657600080fd5b8101908080359060200190929190505050611068565b6040518080602001806020018973ffffffffffffffffffffffffffffffffffffffff1673ffffffffffffffffffffffffffffffffffffffff168152602001888152602001878152602001868152602001851515151581526020018415151515815260200183810383528b818151815260200191508051906020019080838360005b8381101561029857808201518184015260208101905061027d565b50505050905090810190601f1680156102c55780820380516001836020036101000a031916815260200191505b5083810382528a818151815260200191508051906020019080838360005b838110156102fe5780820151818401526020810190506102e3565b50505050905090810190601f16801561032b5780820380516001836020036101000a031916815260200191505b509a505050505050505050505060405180910390f35b34801561034d57600080fd5b506103566112d5565b6040518080602001828103825283818151815260200191508051906020019060200280838360005b8381101561039957808201518184015260208101905061037e565b505050509050019250505060405180910390f35b3480156103b957600080fd5b506103fc600480360360208110156103d057600080fd5b81019080803573ffffffffffffffffffffffffffffffffffffffff16906020019092919050505061132d565b604051808060200180602001838103835285818151815260200191508051906020019060200280838360005b83811015610443578082015181840152602081019050610428565b50505050905001838103825284818151815260200191508051906020019060200280838360005b8381101561048557808201518184015260208101905061046a565b5050505090500194505050505060405180910390f35b3480156104a757600080fd5b506104d4600480360360208110156104be57600080fd5b81019080803590602001909291905050506114cc565b6040518084151515158152602001838152602001828152602001935050505060405180910390f35b34801561050857600080fd5b506105e96004803603608081101561051f57600080fd5b810190808035906020019064010000000081111561053c57600080fd5b82018360208201111561054e57600080fd5b8035906020019184600183028401116401000000008311171561057057600080fd5b90919293919293908035906020019064010000000081111561059157600080fd5b8201836020820111156105a357600080fd5b803590602001918460018302840111640100000000831117156105c557600080fd5b9091929391929390803590602001909291908035906020019092919050505061159f565b005b3480156105f757600080fd5b5061062e6004803603604081101561060e57600080fd5b81019080803590602001909291908035906020019092919050505061189b565b6040518084151515158152602001838152602001828152602001935050505060405180910390f35b34801561066257600080fd5b506107436004803603608081101561067957600080fd5b810190808035906020019064010000000081111561069657600080fd5b8201836020820111156106a857600080fd5b803590602001918460018302840111640100000000831117156106ca57600080fd5b9091929391929390803590602001906401000000008111156106eb57600080fd5b8201836020820111156106fd57600080fd5b8035906020019184600183028401116401000000008311171561071f57600080fd5b90919293919293908035906020019092919080359060200190929190505050611976565b6040518082815260200191505060405180910390f35b34801561076557600080fd5b5061079c6004803603604081101561077c57600080fd5b810190808035906020019092919080359060200190929190505050611dc4565b005b3480156107aa57600080fd5b506107d7600480360360208110156107c157600080fd5b810190808035906020019092919050505061204a565b6040518082815260200191505060405180910390f35b3480156107f957600080fd5b5061080261229a565b604051808273ffffffffffffffffffffffffffffffffffffffff1673ffffffffffffffffffffffffffffffffffffffff16815260200191505060405180910390f35b34801561085057600080fd5b506108936004803603602081101561086757600080fd5b81019080803573ffffffffffffffffffffffffffffffffffffffff1690602001909291905050506122c0565b005b3480156108a157600080fd5b506108d8600480360360408110156108b857600080fd5b8101908080359060200190929190803590602001909291905050506123c6565b005b3480156108e657600080fd5b506108ef612809565b005b6109c76004803603606081101561090757600080fd5b810190808035906020019064010000000081111561092457600080fd5b82018360208201111561093657600080fd5b8035906020019184600183028401116401000000008311171561095857600080fd5b90919293919293908035906020019064010000000081111561097957600080fd5b82018360208201111561098b57600080fd5b803590602001918460018302840111640100000000831117156109ad57600080fd5b9091929391929390803590602001909291905050506129ff565b005b3480156109d557600080fd5b50610a02600480360360208110156109ec57600080fd5b8101908080359060200190929190505050612afb565b6040518080602001828103825283818151815260200191508051906020019060200280838360005b83811015610a45578082015181840152602081019050610a2a565b505050509050019250505060405180910390f35b348015610a6557600080fd5b50610a9260048036036020811015610a7c57600080fd5b8101908080359060200190929190505050612c7d565b60405180848152602001838152602001828152602001935050505060405180910390f35b348015610ac257600080fd5b50610af960048036036040811015610ad957600080fd5b810190808035906020019092919080359060200190929190505050612d50565b6040518084151515158152602001838152602001828152602001935050505060405180910390f35b348015610b2d57600080fd5b50610b7060048036036020811015610b4457600080fd5b81019080803573ffffffffffffffffffffffffffffffffffffffff169060200190929190505050612e2b565b005b60006004600083815260200190815260200160002090508060060160009054906101000a900460ff16610ba457600080fd5b80600401544211610bb457600080fd5b60008060009054906101000a900473ffffffffffffffffffffffffffffffffffffffff1673ffffffffffffffffffffffffffffffffffffffff1663a80209736040518163ffffffff1660e01b815260040160206040518083038186803b158015610c1d57600080fd5b505afa158015610c31573d6000803e3d6000fd5b505050506040513d6020811015610c4757600080fd5b810190808051906020019092919050505090506064610c658461204a565b1115610d785760018260060160016101000a81548160ff0219169083151502179055508073ffffffffffffffffffffffffffffffffffffffff1663a9059cbb8360020160009054906101000a900473ffffffffffffffffffffffffffffffffffffffff1684600501546040518363ffffffff1660e01b8152600401808373ffffffffffffffffffffffffffffffffffffffff1673ffffffffffffffffffffffffffffffffffffffff16815260200182815260200192505050602060405180830381600087803b158015610d3757600080fd5b505af1158015610d4b573d6000803e3d6000fd5b505050506040513d6020811015610d6157600080fd5b810190808051906020019092919050505050610e58565b600060056000858152602001908152602001600020905060008090505b8180549050811015610e5557818181548110610dad57fe5b90600052602060002090600202016001015460086000848481548110610dcf57fe5b906000526020600020906002020160000160009054906101000a900473ffffffffffffffffffffffffffffffffffffffff1673ffffffffffffffffffffffffffffffffffffffff1673ffffffffffffffffffffffffffffffffffffffff168152602001908152602001600020600082825401925050819055508080600101915050610d95565b50505b600060076000858152602001908152602001600020549050600160038054905003811415610e9b576003805480919060019003610e959190612feb565b50610f24565b6000600360016003805490500381548110610eb257fe5b906000526020600020015490508060038381548110610ecd57fe5b90600052602060002001819055508160076000838152602001908152602001600020819055506003805480919060019003610f089190612feb565b5060006007600087815260200190815260200160002081905550505b60008360060160006101000a81548160ff0219169083151502179055507f769c308d4fdba3700f25352c34ea872c7dbe3a52475adf9650f609457ae71176848460060160019054906101000a900460ff1685600501546040518084815260200183151515158152602001828152602001935050505060405180910390a16000836005018190555050505050565b600080600080610fc66032610e104203612d50565b80935081945082955050505050505090565b6000809054906101000a900473ffffffffffffffffffffffffffffffffffffffff1673ffffffffffffffffffffffffffffffffffffffff16632639e0b034836040518363ffffffff1660e01b8152600401808281526020019150506000604051808303818588803b15801561104c57600080fd5b505af1158015611060573d6000803e3d6000fd5b505050505050565b60608060008060008060008061107c613017565b600460008b815260200190815260200160002060405180610100016040529081600082018054600181600116156101000203166002900480601f0160208091040260200160405190810160405280929190818152602001828054600181600116156101000203166002900480156111345780601f1061110957610100808354040283529160200191611134565b820191906000526020600020905b81548152906001019060200180831161111757829003601f168201915b50505050508152602001600182018054600181600116156101000203166002900480601f0160208091040260200160405190810160405280929190818152602001828054600181600116156101000203166002900480156111d65780601f106111ab576101008083540402835291602001916111d6565b820191906000526020600020905b8154815290600101906020018083116111b957829003601f168201915b505050505081526020016002820160009054906101000a900473ffffffffffffffffffffffffffffffffffffffff1673ffffffffffffffffffffffffffffffffffffffff1673ffffffffffffffffffffffffffffffffffffffff1681526020016003820154815260200160048201548152602001600582015481526020016006820160009054906101000a900460ff161515151581526020016006820160019054906101000a900460ff1615151515815250509050806000015181602001518260400151836060015184608001518560a001518660c001518760e001518797508696509850985098509850985098509850985050919395975091939597565b6060600380548060200260200160405190810160405280929190818152602001828054801561132357602002820191906000526020600020905b81548152602001906001019080831161130f575b5050505050905090565b6060806060600660008573ffffffffffffffffffffffffffffffffffffffff1673ffffffffffffffffffffffffffffffffffffffff168152602001908152602001600020805480602002602001604051908101604052809291908181526020016000905b828210156113d757838290600052602060002090600202016040518060400160405290816000820154815260200160018201548152505081526020019060010190611391565b505050509050805160405190808252806020026020018201604052801561140d5781602001602082028038833980820191505090505b50925080516040519080825280602002602001820160405280156114405781602001602082028038833980820191505090505b50915060008090505b81518110156114bf5781818151811061145e57fe5b60200260200101516000015184828151811061147657fe5b60200260200101818152505081818151811061148e57fe5b6020026020010151602001518382815181106114a657fe5b6020026020010181815250508080600101915050611449565b5082829250925050915091565b60008060008060009054906101000a900473ffffffffffffffffffffffffffffffffffffffff1673ffffffffffffffffffffffffffffffffffffffff16633fcad964856040518263ffffffff1660e01b81526004018082815260200191505060606040518083038186803b15801561154357600080fd5b505afa158015611557573d6000803e3d6000fd5b505050506040513d606081101561156d57600080fd5b810190808051906020019092919080519060200190929190805190602001909291905050509250925092509193909250565b60008060009054906101000a900473ffffffffffffffffffffffffffffffffffffffff1673ffffffffffffffffffffffffffffffffffffffff1663a80209736040518163ffffffff1660e01b815260040160206040518083038186803b15801561160857600080fd5b505afa15801561161c573d6000803e3d6000fd5b505050506040513d602081101561163257600080fd5b8101908080519060200190929190505050905060008211156117b7578073ffffffffffffffffffffffffffffffffffffffff166323b872dd3330856040518463ffffffff1660e01b8152600401808473ffffffffffffffffffffffffffffffffffffffff1673ffffffffffffffffffffffffffffffffffffffff1681526020018373ffffffffffffffffffffffffffffffffffffffff1673ffffffffffffffffffffffffffffffffffffffff1681526020018281526020019350505050602060405180830381600087803b15801561170957600080fd5b505af115801561171d573d6000803e3d6000fd5b505050506040513d602081101561173357600080fd5b81019080805190602001909291905050506117b6576040517f08c379a000000000000000000000000000000000000000000000000000000000815260040180806020018281038252600f8152602001807f5472616e73666572206661696c6564000000000000000000000000000000000081525060200191505060405180910390fd5b5b8073ffffffffffffffffffffffffffffffffffffffff16633fff28168888888888886040518763ffffffff1660e01b81526004018080602001806020018581526020018481526020018381038352898982818152602001925080828437600081840152601f19601f8201169050808301925050508381038252878782818152602001925080828437600081840152601f19601f82011690508083019250505098505050505050505050600060405180830381600087803b15801561187a57600080fd5b505af115801561188e573d6000803e3d6000fd5b5050505050505050505050565b60008060008060009054906101000a900473ffffffffffffffffffffffffffffffffffffffff1673ffffffffffffffffffffffffffffffffffffffff16635f059f3e86866040518363ffffffff1660e01b8152600401808381526020018281526020019250505060606040518083038186803b15801561191a57600080fd5b505afa15801561192e573d6000803e3d6000fd5b505050506040513d606081101561194457600080fd5b810190808051906020019092919080519060200190929190805190602001909291905050509250925092509250925092565b6000806000809054906101000a900473ffffffffffffffffffffffffffffffffffffffff1673ffffffffffffffffffffffffffffffffffffffff1663a80209736040518163ffffffff1660e01b815260040160206040518083038186803b1580156119e057600080fd5b505afa1580156119f4573d6000803e3d6000fd5b505050506040513d6020811015611a0a57600080fd5b810190808051906020019092919050505090508073ffffffffffffffffffffffffffffffffffffffff166323b872dd336000670de0b6b3a76400006040518463ffffffff1660e01b8152600401808473ffffffffffffffffffffffffffffffffffffffff1673ffffffffffffffffffffffffffffffffffffffff1681526020018373ffffffffffffffffffffffffffffffffffffffff1673ffffffffffffffffffffffffffffffffffffffff1681526020018281526020019350505050602060405180830381600087803b158015611ae157600080fd5b505af1158015611af5573d6000803e3d6000fd5b505050506040513d6020811015611b0b57600080fd5b8101908080519060200190929190505050611b8e576040517f08c379a00000000000000000000000000000000000000000000000000000000081526004018080602001828103825260178152602001807f56697267696e20536163726966696365204661696c656400000000000000000081525060200191505060405180910390fd5b601e8310611b9b57600080fd5b600254915060026000815480929190600101919050555060405180610100016040528089898080601f016020809104026020016040519081016040528093929190818152602001838380828437600081840152601f19601f82011690508083019250505050505050815260200187878080601f016020809104026020016040519081016040528093929190818152602001838380828437600081840152601f19601f8201169050808301925050505050505081526020013373ffffffffffffffffffffffffffffffffffffffff168152602001858152602001620151808502420181526020016000815260200160011515815260200160001515815250600460008481526020019081526020016000206000820151816000019080519060200190611cc7929190613076565b506020820151816001019080519060200190611ce4929190613076565b5060408201518160020160006101000a81548173ffffffffffffffffffffffffffffffffffffffff021916908373ffffffffffffffffffffffffffffffffffffffff160217905550606082015181600301556080820151816004015560a0820151816005015560c08201518160060160006101000a81548160ff02191690831515021790555060e08201518160060160016101000a81548160ff0219169083151502179055509050506003829080600181540180825580915050906001820390600052602060002001600090919290919091505550509695505050505050565b60008060009054906101000a900473ffffffffffffffffffffffffffffffffffffffff1673ffffffffffffffffffffffffffffffffffffffff1663a80209736040518163ffffffff1660e01b815260040160206040518083038186803b158015611e2d57600080fd5b505afa158015611e41573d6000803e3d6000fd5b505050506040513d6020811015611e5757600080fd5b810190808051906020019092919050505090508073ffffffffffffffffffffffffffffffffffffffff166323b872dd3330856040518463ffffffff1660e01b8152600401808473ffffffffffffffffffffffffffffffffffffffff1673ffffffffffffffffffffffffffffffffffffffff1681526020018373ffffffffffffffffffffffffffffffffffffffff1673ffffffffffffffffffffffffffffffffffffffff1681526020018281526020019350505050602060405180830381600087803b158015611f2557600080fd5b505af1158015611f39573d6000803e3d6000fd5b505050506040513d6020811015611f4f57600080fd5b8101908080519060200190929190505050611fd2576040517f08c379a000000000000000000000000000000000000000000000000000000000815260040180806020018281038252600f8152602001807f5472616e73666572206661696c6564000000000000000000000000000000000081525060200191505060405180910390fd5b8073ffffffffffffffffffffffffffffffffffffffff1663752d49a184846040518363ffffffff1660e01b81526004018083815260200182815260200192505050600060405180830381600087803b15801561202d57600080fd5b505af1158015612041573d6000803e3d6000fd5b50505050505050565b6000612054613017565b6004600084815260200190815260200160002060405180610100016040529081600082018054600181600116156101000203166002900480601f01602080910402602001604051908101604052809291908181526020018280546001816001161561010002031660029004801561210c5780601f106120e15761010080835404028352916020019161210c565b820191906000526020600020905b8154815290600101906020018083116120ef57829003601f168201915b50505050508152602001600182018054600181600116156101000203166002900480601f0160208091040260200160405190810160405280929190818152602001828054600181600116156101000203166002900480156121ae5780601f10612183576101008083540402835291602001916121ae565b820191906000526020600020905b81548152906001019060200180831161219157829003601f168201915b505050505081526020016002820160009054906101000a900473ffffffffffffffffffffffffffffffffffffffff1673ffffffffffffffffffffffffffffffffffffffff1673ffffffffffffffffffffffffffffffffffffffff1681526020016003820154815260200160048201548152602001600582015481526020016006820160009054906101000a900460ff161515151581526020016006820160019054906101000a900460ff1615151515815250509050670de0b6b3a7640000612274610fb1565b8260a00151028161228157fe5b0460648260600151028161229157fe5b04915050919050565b600160009054906101000a900473ffffffffffffffffffffffffffffffffffffffff1681565b600160009054906101000a900473ffffffffffffffffffffffffffffffffffffffff1673ffffffffffffffffffffffffffffffffffffffff163373ffffffffffffffffffffffffffffffffffffffff1614612383576040517f08c379a00000000000000000000000000000000000000000000000000000000081526004018080602001828103825260138152602001807f53656e646572206973206e6f74206f776e65720000000000000000000000000081525060200191505060405180910390fd5b806000806101000a81548173ffffffffffffffffffffffffffffffffffffffff021916908373ffffffffffffffffffffffffffffffffffffffff16021790555050565b600081116123d357600080fd5b60006004600084815260200190815260200160002090508060060160009054906101000a900460ff1661240557600080fd5b60008060009054906101000a900473ffffffffffffffffffffffffffffffffffffffff1673ffffffffffffffffffffffffffffffffffffffff1663a80209736040518163ffffffff1660e01b815260040160206040518083038186803b15801561246e57600080fd5b505afa158015612482573d6000803e3d6000fd5b505050506040513d602081101561249857600080fd5b810190808051906020019092919050505090508073ffffffffffffffffffffffffffffffffffffffff166323b872dd3330866040518463ffffffff1660e01b8152600401808473ffffffffffffffffffffffffffffffffffffffff1673ffffffffffffffffffffffffffffffffffffffff1681526020018373ffffffffffffffffffffffffffffffffffffffff1673ffffffffffffffffffffffffffffffffffffffff1681526020018281526020019350505050602060405180830381600087803b15801561256657600080fd5b505af115801561257a573d6000803e3d6000fd5b505050506040513d602081101561259057600080fd5b8101908080519060200190929190505050612613576040517f08c379a000000000000000000000000000000000000000000000000000000000815260040180806020018281038252600e8152602001807f46756e64696e67204661696c656400000000000000000000000000000000000081525060200191505060405180910390fd5b61261b6130f6565b6040518060400160405280868152602001858152509050600660003373ffffffffffffffffffffffffffffffffffffffff1673ffffffffffffffffffffffffffffffffffffffff168152602001908152602001600020819080600181540180825580915050906001820390600052602060002090600202016000909192909190915060008201518160000155602082015181600101555050508383600501600082825401925050819055506126ce613110565b60405180604001604052803373ffffffffffffffffffffffffffffffffffffffff16815260200186815250905060056000878152602001908152602001600020819080600181540180825580915050906001820390600052602060002090600202016000909192909190915060008201518160000160006101000a81548173ffffffffffffffffffffffffffffffffffffffff021916908373ffffffffffffffffffffffffffffffffffffffff160217905550602082015181600101555050507f5b47478b1a9bcccc0683800f537f513a17c66ebb7a9b7e2773053b37fc83bb05863387604051808481526020018373ffffffffffffffffffffffffffffffffffffffff1673ffffffffffffffffffffffffffffffffffffffff168152602001828152602001935050505060405180910390a1505050505050565b60008060009054906101000a900473ffffffffffffffffffffffffffffffffffffffff1673ffffffffffffffffffffffffffffffffffffffff1663a80209736040518163ffffffff1660e01b815260040160206040518083038186803b15801561287257600080fd5b505afa158015612886573d6000803e3d6000fd5b505050506040513d602081101561289c57600080fd5b810190808051906020019092919050505090506000600860003373ffffffffffffffffffffffffffffffffffffffff1673ffffffffffffffffffffffffffffffffffffffff1681526020019081526020016000205490506000600860003373ffffffffffffffffffffffffffffffffffffffff1673ffffffffffffffffffffffffffffffffffffffff168152602001908152602001600020819055508173ffffffffffffffffffffffffffffffffffffffff1663a9059cbb33836040518363ffffffff1660e01b8152600401808373ffffffffffffffffffffffffffffffffffffffff1673ffffffffffffffffffffffffffffffffffffffff16815260200182815260200192505050602060405180830381600087803b1580156129bf57600080fd5b505af11580156129d3573d6000803e3d6000fd5b505050506040513d60208110156129e957600080fd5b8101908080519060200190929190505050505050565b6000809054906101000a900473ffffffffffffffffffffffffffffffffffffffff1673ffffffffffffffffffffffffffffffffffffffff1663bb19e2963487878787876040518763ffffffff1660e01b81526004018080602001806020018481526020018381038352888882818152602001925080828437600081840152601f19601f8201169050808301925050508381038252868682818152602001925080828437600081840152601f19601f8201169050808301925050509750505050505050506000604051808303818588803b158015612adb57600080fd5b505af1158015612aef573d6000803e3d6000fd5b50505050505050505050565b60608060056000848152602001908152602001600020805480602002602001604051908101604052809291908181526020016000905b82821015612bc357838290600052602060002090600202016040518060400160405290816000820160009054906101000a900473ffffffffffffffffffffffffffffffffffffffff1673ffffffffffffffffffffffffffffffffffffffff1673ffffffffffffffffffffffffffffffffffffffff16815260200160018201548152505081526020019060010190612b31565b5050505090508051604051908082528060200260200182016040528015612bf95781602001602082028038833980820191505090505b50915060008090505b8151811015612c7657818181518110612c1757fe5b602002602001015160000151838281518110612c2f57fe5b602002602001019073ffffffffffffffffffffffffffffffffffffffff16908173ffffffffffffffffffffffffffffffffffffffff16815250508080600101915050612c02565b5050919050565b60008060008060009054906101000a900473ffffffffffffffffffffffffffffffffffffffff1673ffffffffffffffffffffffffffffffffffffffff1663d09cc57e856040518263ffffffff1660e01b81526004018082815260200191505060606040518083038186803b158015612cf457600080fd5b505afa158015612d08573d6000803e3d6000fd5b505050506040513d6060811015612d1e57600080fd5b810190808051906020019092919080519060200190929190805190602001909291905050509250925092509193909250565b60008060008060009054906101000a900473ffffffffffffffffffffffffffffffffffffffff1673ffffffffffffffffffffffffffffffffffffffff1663d269a83c86866040518363ffffffff1660e01b8152600401808381526020018281526020019250505060606040518083038186803b158015612dcf57600080fd5b505afa158015612de3573d6000803e3d6000fd5b505050506040513d6060811015612df957600080fd5b810190808051906020019092919080519060200190929190805190602001909291905050509250925092509250925092565b600160009054906101000a900473ffffffffffffffffffffffffffffffffffffffff1673ffffffffffffffffffffffffffffffffffffffff163373ffffffffffffffffffffffffffffffffffffffff1614612eee576040517f08c379a00000000000000000000000000000000000000000000000000000000081526004018080602001828103825260138152602001807f53656e646572206973206e6f74206f776e65720000000000000000000000000081525060200191505060405180910390fd5b7f8be0079c531659141344cd1fd0a4f28419497f9722a3daafe3b4186f6b6457e0600160009054906101000a900473ffffffffffffffffffffffffffffffffffffffff1682604051808373ffffffffffffffffffffffffffffffffffffffff1673ffffffffffffffffffffffffffffffffffffffff1681526020018273ffffffffffffffffffffffffffffffffffffffff1673ffffffffffffffffffffffffffffffffffffffff1681526020019250505060405180910390a180600160006101000a81548173ffffffffffffffffffffffffffffffffffffffff021916908373ffffffffffffffffffffffffffffffffffffffff16021790555050565b815481835581811115613012578183600052602060002091820191016130119190613140565b5b505050565b6040518061010001604052806060815260200160608152602001600073ffffffffffffffffffffffffffffffffffffffff1681526020016000815260200160008152602001600081526020016000151581526020016000151581525090565b828054600181600116156101000203166002900490600052602060002090601f016020900481019282601f106130b757805160ff19168380011785556130e5565b828001600101855582156130e5579182015b828111156130e45782518255916020019190600101906130c9565b5b5090506130f29190613140565b5090565b604051806040016040528060008152602001600081525090565b6040518060400160405280600073ffffffffffffffffffffffffffffffffffffffff168152602001600081525090565b61316291905b8082111561315e576000816000905550600101613146565b5090565b9056fea165627a7a72305820f5c0a83ddde6c27224d37d2da8742fb4013cfde1d71374f90393c9ac77751bd00029",
  "source": "pragma solidity >=0.4.21;\nimport \"usingtellor/contracts/UsingTellor.sol\";\n\n\ncontract TellorFund is UsingTellor{\n\n\tuint proposalCount;\n\tuint[] openProposals;\n\n\tstruct Proposal{\n\t\tstring title;\n\t\tstring description;\n\t\taddress owner;\n\t\tuint minAmountUSD;\n\t\tuint expirationDate;\n\t\tuint trbBalance;\n\t\tbool open;\n\t\tbool passed;\n\t}\n\n\tstruct Funder{\n\t\taddress funder;\n\t\tuint amount;\n\t}\n\n\tstruct Statement{\n\t\tuint id;\n\t\tuint amount;\n\t}\n\tmapping(uint => Proposal) idToProposal;\n\tmapping(uint => Funder[]) idToFunders;\n\tmapping(address => Statement[]) addressToStatements;\n\tmapping(uint => uint) idToOpenIndex;\n\tmapping(address => uint) availableForWithdraw;\n\n\tevent NewProposal(uint _id,string _title,string _desc,uint _minAmountUSD,uint _daystilComplete);\n\tevent ProposalFunded(uint _id, address _funder, uint _amount);\n\tevent ProposalClosed(uint _id, bool _funded, uint _amount);\n\n    constructor(address _userContract) public UsingTellor(_userContract){\n    \tproposalCount + 1;\n    \topenProposals.length++;\n    }\n\n\n    //be sure to approve first\n\tfunction createProposal(string calldata _title, string calldata _desc,uint _minAmountUSD, uint _daystilComplete) external returns(uint _id){\n\t\tTellor _tellor = Tellor(tellorUserContract.tellorStorageAddress());\n        require(_tellor.transferFrom(msg.sender,address(0),1e18), \"Virgin Sacrifice Failed\");\n\t\trequire(_daystilComplete < 30);\n\t\t_id = proposalCount;\n\t\tproposalCount++;\n\t\tidToProposal[_id] = Proposal({\n\t\t\ttitle:_title,\n\t\t\tdescription:_desc,\n\t\t\towner:msg.sender,\n\t\t\tminAmountUSD:_minAmountUSD,\n\t\t\texpirationDate:now + _daystilComplete * 86400,\n\t\t\ttrbBalance:0,\n\t\t\topen:true,\n\t\t\tpassed:false\n\t\t});\n\t\topenProposals.push(_id);\n\n\t}\n\n\tfunction fund(uint _id, uint _amountTRB) external {\n\t\trequire(_amountTRB > 0);\n\t\tProposal storage thisProp = idToProposal[_id];\n\t\trequire(thisProp.open);\n\t\tTellor _tellor = Tellor(tellorUserContract.tellorStorageAddress());\n        require(_tellor.transferFrom(msg.sender,address(this),_amountTRB), \"Funding Failed\");\n        Statement memory thisStatement= Statement({\n        \tid:_id,\n        \tamount:_amountTRB\n        \t});\n        addressToStatements[msg.sender].push(thisStatement);\n        thisProp.trbBalance += _amountTRB;\n\n        Funder memory thisFunder = Funder({\n        \tfunder:msg.sender,\n        \tamount:_amountTRB\n        });\n        idToFunders[_id].push(thisFunder);\n        emit ProposalFunded(_id,msg.sender,_amountTRB);\n\n\t}\n\n\tfunction closeProposal(uint _id) external{\n\t\tProposal storage thisProp = idToProposal[_id];\n\t\trequire(thisProp.open);\n\t\trequire(now > thisProp.expirationDate);\n\t\tTellor _tellor = Tellor(tellorUserContract.tellorStorageAddress());\n\t\tif(percentFunded(_id) > 100){\n\t\t\tthisProp.passed = true;\n\t\t\t_tellor.transfer(thisProp.owner,thisProp.trbBalance);\n\t\t}\n\t\telse{\n\t\t\tFunder[] storage theseFunders = idToFunders[_id];\n\t\t\tfor(uint i=0;i < theseFunders.length;i++){\n\t\t\t\tavailableForWithdraw[theseFunders[i].funder] += theseFunders[i].amount; \n\t\t\t}\n\t\t}\n\t\tuint _index = idToOpenIndex[_id];\n\t\tif(_index == openProposals.length - 1){\n\t\t\topenProposals.length--;\n\t\t}\n\t\telse{\n\t\t\tuint _lastId = openProposals[openProposals.length - 1];\n\t\t\topenProposals[_index] = _lastId;\n\t\t\tidToOpenIndex[_lastId] = _index;\n\t\t\topenProposals.length--;\n\t\t\tidToOpenIndex[_id] = 0;\n\t\t}\n\t\tthisProp.open = false;\n\t\temit ProposalClosed(_id,thisProp.passed,thisProp.trbBalance);\n\t\tthisProp.trbBalance = 0;\n\t}\n\n \tfunction withdrawMoney() external{\n \t\tTellor _tellor = Tellor(tellorUserContract.tellorStorageAddress());\n \t\tuint _amt = availableForWithdraw[msg.sender];\n \t\tavailableForWithdraw[msg.sender] =0;\n\t\t_tellor.transfer(msg.sender,_amt);\n \t}\n\n\tfunction getAllOpenProposals() external view returns(uint[] memory){\n\t\treturn openProposals;\n\t}\n\n\tfunction getProposalById(uint _id) external view returns(string memory,string memory,address,uint,uint,uint,bool,bool){\n\t\tProposal memory t = idToProposal[_id];\n\t\treturn (t.title,t.description,t.owner,t.minAmountUSD,t.expirationDate,t.trbBalance,t.open,t.passed);\n\t}\n\n\n\tfunction getProposalsByAddress(address _funder) public view returns(uint[] memory propArray,uint[] memory amountArray){\n\t\tStatement[] memory theseStatements = addressToStatements[_funder];\n\t\tpropArray = new uint[](theseStatements.length);\n\t\tamountArray = new uint[](theseStatements.length);\n\t\tfor(uint i=0;i < theseStatements.length;i++){\n\t\t\tpropArray[i] = theseStatements[i].id;\n\t\t\tamountArray[i]= theseStatements[i].amount;\n\t\t}\n\t\treturn (propArray,amountArray);\n\t}\n\n\tfunction getAddressesById(uint _id) public view returns(address[] memory addArray){\n\t\t\tFunder[] memory theseFunders = idToFunders[_id];\n\t\t\taddArray = new address[](theseFunders.length);\n\t\t\tfor(uint i=0;i < theseFunders.length;i++){\n\t\t\t\taddArray[i] = theseFunders[i].funder;\n\t\t\t}\n\t}\n\n\tfunction percentFunded(uint _id) public view returns(uint){\n\t\t\tProposal memory thisProp = idToProposal[_id];\n\t\t\treturn thisProp.minAmountUSD * 100 / (thisProp.trbBalance* viewTellorPrice()/1e18);\n\t}\n\n\tfunction viewTellorPrice() public view returns(uint){\n\t\tbool _didget;\n\t\tuint _value;\n\t\tuint _timestamp;\n\t\t(_didget,_value,_timestamp) = getAnyDataAfter(50,now - 60 minutes);\n\t}\n\n}\n",
  "sourcePath": "C:/company/code/tellor.fund/contracts/TellorFund.sol",
  "compiler": {
    "name": "solc",
    "version": "0.5.8+commit.23d335f2.Emscripten.clang"
  },
  "schemaVersion": "3.0.16",
  "updatedAt": "2020-01-31T21:18:17.018Z",
  "devdoc": {
    "methods": {
      "addTip(uint256,uint256)": {
        "details": "Allows the user to tip miners for the specified request using Tributes\r",
        "params": {
          "_requestId": "to tip\r",
          "_tip": "amount\r"
        }
      },
      "addTipWithEther(uint256)": {
        "details": "Allows user to add tip with Ether by sending the ETH to the userContract and exchanging it for Tributes\r at the price specified by the userContract owner.\r",
        "params": {
          "_requestId": "to tip\r"
        }
      },
      "getAnyDataAfter(uint256,uint256)": {
        "details": "Allows the user to get the first value for the requestId after the specified timestamp\r",
        "params": {
          "_requestId": "is the requestId to look up the value for\r",
          "_timestamp": "after which to search for first verified value\r"
        },
        "return": "bool true if it is able to retreive a value, the value, and the value's timestamp\r"
      },
      "getCurrentValue(uint256)": {
        "details": "Allows the user to get the latest value for the requestId specified\r",
        "params": {
          "_requestId": "is the requestId to look up the value for\r"
        },
        "return": "bool true if it is able to retreive a value, the value, and the value's timestamp\r"
      },
      "getFirstVerifiedDataAfter(uint256,uint256)": {
        "details": "Allows the user to get the first verified value for the requestId after the specified timestamp\r",
        "params": {
          "_requestId": "is the requestId to look up the value for\r",
          "_timestamp": "after which to search for first verified value\r"
        },
        "return": "bool true if it is able to retreive a value, the value, and the value's timestamp, the timestamp after\r which it searched for the first verified value\r"
      },
      "requestData(string,string,uint256,uint256)": {
        "details": "Allows the user to submit a request for data to the oracle using Tributes\r Allowing this prevents us from increasing spread too high (since if we set the price too hight\r users will just go to an exchange and get tokens from there)\r",
        "params": {
          "_granularity": "is the number of decimals miners should include on the submitted value\r",
          "_request": "string API being requested to be mined\r",
          "_symbol": "is the short string symbol for the api request\r",
          "_tip": "amount the requester is willing to pay to be get on queue. Miners\r mine the onDeckQueryHash, or the api with the highest payout pool\r"
        }
      },
      "requestDataWithEther(string,string,uint256)": {
        "details": "Allows the user to submit a request for data to the oracle using ETH\r",
        "params": {
          "_granularity": "is the number of decimals miners should include on the submitted value\r",
          "_request": "string API being requested to be mined\r",
          "_symbol": "is the short string symbol for the api request\r"
        }
      },
      "resultFor(bytes32)": {
        "details": "Allows the user to get the latest value for the requestId specified using the \r ADO specification for the standard inteface for price oracles\r",
        "params": {
          "_bytesId": "is the ADO standarized bytes32 price/key value pair identifier\r"
        },
        "return": "the timestamp, outcome or value/ and the status code (for retreived, null, etc...)\r"
      },
      "setUserContract(address)": {
        "details": "allows owner to set the user contract address\r",
        "params": {
          "_userContract": "address\r"
        }
      },
      "transferOwnership(address)": {
        "details": "allows owner to transfer ownership\r",
        "params": {
          "_newOwner": "address\r"
        }
      }
    }
  },
  "userdoc": {
    "methods": {}
  }
}