{
  "contractName": "TellorFund",
  "abi": [
    {
      "constant": false,
      "inputs": [
        {
          "name": "_requestId",
          "type": "uint256"
        }
      ],
      "name": "addTipWithEther",
      "outputs": [],
      "payable": true,
      "stateMutability": "payable",
      "type": "function"
    },
    {
      "constant": true,
      "inputs": [
        {
          "name": "_requestId",
          "type": "uint256"
        }
      ],
      "name": "getCurrentValue",
      "outputs": [
        {
          "name": "ifRetrieve",
          "type": "bool"
        },
        {
          "name": "value",
          "type": "uint256"
        },
        {
          "name": "_timestampRetrieved",
          "type": "uint256"
        }
      ],
      "payable": false,
      "stateMutability": "view",
      "type": "function"
    },
    {
      "constant": false,
      "inputs": [
        {
          "name": "_request",
          "type": "string"
        },
        {
          "name": "_symbol",
          "type": "string"
        },
        {
          "name": "_granularity",
          "type": "uint256"
        },
        {
          "name": "_tip",
          "type": "uint256"
        }
      ],
      "name": "requestData",
      "outputs": [],
      "payable": false,
      "stateMutability": "nonpayable",
      "type": "function"
    },
    {
      "constant": true,
      "inputs": [],
      "name": "granularity",
      "outputs": [
        {
          "name": "",
          "type": "uint256"
        }
      ],
      "payable": false,
      "stateMutability": "view",
      "type": "function"
    },
    {
      "constant": true,
      "inputs": [
        {
          "name": "_requestId",
          "type": "uint256"
        },
        {
          "name": "_timestamp",
          "type": "uint256"
        }
      ],
      "name": "getFirstVerifiedDataAfter",
      "outputs": [
        {
          "name": "",
          "type": "bool"
        },
        {
          "name": "",
          "type": "uint256"
        },
        {
          "name": "_timestampRetrieved",
          "type": "uint256"
        }
      ],
      "payable": false,
      "stateMutability": "view",
      "type": "function"
    },
    {
      "constant": false,
      "inputs": [
        {
          "name": "_requestId",
          "type": "uint256"
        },
        {
          "name": "_tip",
          "type": "uint256"
        }
      ],
      "name": "addTip",
      "outputs": [],
      "payable": false,
      "stateMutability": "nonpayable",
      "type": "function"
    },
    {
      "constant": true,
      "inputs": [],
      "name": "owner",
      "outputs": [
        {
          "name": "",
          "type": "address"
        }
      ],
      "payable": false,
      "stateMutability": "view",
      "type": "function"
    },
    {
      "constant": true,
      "inputs": [],
      "name": "tellorPriceID",
      "outputs": [
        {
          "name": "",
          "type": "uint256"
        }
      ],
      "payable": false,
      "stateMutability": "view",
      "type": "function"
    },
    {
      "constant": false,
      "inputs": [
        {
          "name": "_userContract",
          "type": "address"
        }
      ],
      "name": "setUserContract",
      "outputs": [],
      "payable": false,
      "stateMutability": "nonpayable",
      "type": "function"
    },
    {
      "constant": false,
      "inputs": [
        {
          "name": "_request",
          "type": "string"
        },
        {
          "name": "_symbol",
          "type": "string"
        },
        {
          "name": "_granularity",
          "type": "uint256"
        }
      ],
      "name": "requestDataWithEther",
      "outputs": [],
      "payable": true,
      "stateMutability": "payable",
      "type": "function"
    },
    {
      "constant": true,
      "inputs": [
        {
          "name": "_bytesId",
          "type": "bytes32"
        }
      ],
      "name": "resultFor",
      "outputs": [
        {
          "name": "timestamp",
          "type": "uint256"
        },
        {
          "name": "outcome",
          "type": "int256"
        },
        {
          "name": "status",
          "type": "int256"
        }
      ],
      "payable": false,
      "stateMutability": "view",
      "type": "function"
    },
    {
      "constant": true,
      "inputs": [
        {
          "name": "_requestId",
          "type": "uint256"
        },
        {
          "name": "_timestamp",
          "type": "uint256"
        }
      ],
      "name": "getAnyDataAfter",
      "outputs": [
        {
          "name": "_ifRetrieve",
          "type": "bool"
        },
        {
          "name": "_value",
          "type": "uint256"
        },
        {
          "name": "_timestampRetrieved",
          "type": "uint256"
        }
      ],
      "payable": false,
      "stateMutability": "view",
      "type": "function"
    },
    {
      "constant": false,
      "inputs": [
        {
          "name": "_newOwner",
          "type": "address"
        }
      ],
      "name": "transferOwnership",
      "outputs": [],
      "payable": false,
      "stateMutability": "nonpayable",
      "type": "function"
    },
    {
      "inputs": [
        {
          "name": "_userContract",
          "type": "address"
        },
        {
          "name": "_tellorPriceID",
          "type": "uint256"
        },
        {
          "name": "_granularity",
          "type": "uint256"
        }
      ],
      "payable": false,
      "stateMutability": "nonpayable",
      "type": "constructor"
    },
    {
      "anonymous": false,
      "inputs": [
        {
          "indexed": false,
          "name": "_id",
          "type": "uint256"
        },
        {
          "indexed": false,
          "name": "_title",
          "type": "string"
        },
        {
          "indexed": false,
          "name": "_desc",
          "type": "string"
        },
        {
          "indexed": false,
          "name": "_minAmountUSD",
          "type": "uint256"
        },
        {
          "indexed": false,
          "name": "_daystilComplete",
          "type": "uint256"
        }
      ],
      "name": "NewProposal",
      "type": "event"
    },
    {
      "anonymous": false,
      "inputs": [
        {
          "indexed": false,
          "name": "_id",
          "type": "uint256"
        },
        {
          "indexed": false,
          "name": "_funder",
          "type": "address"
        },
        {
          "indexed": false,
          "name": "_amount",
          "type": "uint256"
        }
      ],
      "name": "ProposalFunded",
      "type": "event"
    },
    {
      "anonymous": false,
      "inputs": [
        {
          "indexed": false,
          "name": "_id",
          "type": "uint256"
        },
        {
          "indexed": false,
          "name": "_funded",
          "type": "bool"
        },
        {
          "indexed": false,
          "name": "_amount",
          "type": "uint256"
        }
      ],
      "name": "ProposalClosed",
      "type": "event"
    },
    {
      "anonymous": false,
      "inputs": [
        {
          "indexed": false,
          "name": "_previousOwner",
          "type": "address"
        },
        {
          "indexed": false,
          "name": "_newOwner",
          "type": "address"
        }
      ],
      "name": "OwnershipTransferred",
      "type": "event"
    },
    {
      "constant": false,
      "inputs": [
        {
          "name": "_title",
          "type": "string"
        },
        {
          "name": "_desc",
          "type": "string"
        },
        {
          "name": "_minAmountUSD",
          "type": "uint256"
        },
        {
          "name": "_daystilComplete",
          "type": "uint256"
        }
      ],
      "name": "createProposal",
      "outputs": [
        {
          "name": "_id",
          "type": "uint256"
        }
      ],
      "payable": false,
      "stateMutability": "nonpayable",
      "type": "function"
    },
    {
      "constant": false,
      "inputs": [
        {
          "name": "_id",
          "type": "uint256"
        },
        {
          "name": "_amountTRB",
          "type": "uint256"
        }
      ],
      "name": "fund",
      "outputs": [],
      "payable": false,
      "stateMutability": "nonpayable",
      "type": "function"
    },
    {
      "constant": false,
      "inputs": [
        {
          "name": "_id",
          "type": "uint256"
        }
      ],
      "name": "closeProposal",
      "outputs": [],
      "payable": false,
      "stateMutability": "nonpayable",
      "type": "function"
    },
    {
      "constant": false,
      "inputs": [],
      "name": "withdrawMoney",
      "outputs": [],
      "payable": false,
      "stateMutability": "nonpayable",
      "type": "function"
    },
    {
      "constant": true,
      "inputs": [],
      "name": "getAllOpenProposals",
      "outputs": [
        {
          "name": "",
          "type": "uint256[]"
        }
      ],
      "payable": false,
      "stateMutability": "view",
      "type": "function"
    },
    {
      "constant": false,
      "inputs": [
        {
          "name": "_user",
          "type": "address"
        }
      ],
      "name": "getAvailableForWithdraw",
      "outputs": [
        {
          "name": "",
          "type": "uint256"
        }
      ],
      "payable": false,
      "stateMutability": "nonpayable",
      "type": "function"
    },
    {
      "constant": true,
      "inputs": [
        {
          "name": "_id",
          "type": "uint256"
        }
      ],
      "name": "getProposalById",
      "outputs": [
        {
          "name": "",
          "type": "string"
        },
        {
          "name": "",
          "type": "string"
        },
        {
          "name": "",
          "type": "address"
        },
        {
          "name": "",
          "type": "uint256"
        },
        {
          "name": "",
          "type": "uint256"
        },
        {
          "name": "",
          "type": "uint256"
        },
        {
          "name": "",
          "type": "bool"
        },
        {
          "name": "",
          "type": "bool"
        }
      ],
      "payable": false,
      "stateMutability": "view",
      "type": "function"
    },
    {
      "constant": true,
      "inputs": [
        {
          "name": "_funder",
          "type": "address"
        }
      ],
      "name": "getProposalsByAddress",
      "outputs": [
        {
          "name": "propArray",
          "type": "uint256[]"
        },
        {
          "name": "amountArray",
          "type": "uint256[]"
        }
      ],
      "payable": false,
      "stateMutability": "view",
      "type": "function"
    },
    {
      "constant": true,
      "inputs": [
        {
          "name": "_id",
          "type": "uint256"
        }
      ],
      "name": "getAddressesById",
      "outputs": [
        {
          "name": "addArray",
          "type": "address[]"
        }
      ],
      "payable": false,
      "stateMutability": "view",
      "type": "function"
    },
    {
      "constant": true,
      "inputs": [
        {
          "name": "_id",
          "type": "uint256"
        }
      ],
      "name": "percentFunded",
      "outputs": [
        {
          "name": "",
          "type": "uint256"
        }
      ],
      "payable": false,
      "stateMutability": "view",
      "type": "function"
    },
    {
      "constant": true,
      "inputs": [],
      "name": "viewTellorPrice",
      "outputs": [
        {
          "name": "",
          "type": "uint256"
        }
      ],
      "payable": false,
      "stateMutability": "view",
      "type": "function"
    },
    {
      "constant": true,
      "inputs": [],
      "name": "getProposalCount",
      "outputs": [
        {
          "name": "",
          "type": "uint256"
        }
      ],
      "payable": false,
      "stateMutability": "view",
      "type": "function"
    }
  ],
  "bytecode": "0x60806040523480156200001157600080fd5b50604051606080620035fb833981018060405260608110156200003357600080fd5b8101908080519060200190929190805190602001909291908051906020019092919050505082806000806101000a81548173ffffffffffffffffffffffffffffffffffffffff021916908373ffffffffffffffffffffffffffffffffffffffff16021790555033600160006101000a81548173ffffffffffffffffffffffffffffffffffffffff021916908373ffffffffffffffffffffffffffffffffffffffff16021790555050600160028190555081600381905550806004819055506005805480919060010162000107919062000111565b5050505062000168565b8154818355818111156200013b578183600052602060002091820191016200013a919062000140565b5b505050565b6200016591905b808211156200016157600081600090555060010162000147565b5090565b90565b61348380620001786000396000f3fe6080604052600436106101665760003560e01c8063752d49a1116100d1578063ac4460021161008a578063c08cc02d11610064578063c08cc02d14610b50578063d09cc57e14610b7b578063d269a83c14610bd8578063f2fde38b14610c4357610166565b8063ac446002146109d1578063bb19e296146109e8578063be407cf214610ac057610166565b8063752d49a114610825578063811ad5e31461086a5780638da5cb5b146108b9578063a11a12e214610910578063a1206d4e1461093b578063a65e2cfd1461098c57610166565b80633ed2ab0a116101235780633ed2ab0a1461044e5780633fcad9641461053c5780633fff28161461059d578063556f0dc71461068c5780635f059f3e146106b75780636b5e17661461072257610166565b80630386a0161461016b5780630fc8deca146101a657806316c039c71461020b5780632639e0b0146102365780633656de21146102645780633aedd661146103e2575b600080fd5b34801561017757600080fd5b506101a46004803603602081101561018e57600080fd5b8101908080359060200190929190505050610c94565b005b3480156101b257600080fd5b506101f5600480360360208110156101c957600080fd5b81019080803573ffffffffffffffffffffffffffffffffffffffff1690602001909291905050506110df565b6040518082815260200191505060405180910390f35b34801561021757600080fd5b50610220611128565b6040518082815260200191505060405180910390f35b6102626004803603602081101561024c57600080fd5b81019080803590602001909291905050506111e6565b005b34801561027057600080fd5b5061029d6004803603602081101561028757600080fd5b8101908080359060200190929190505050611276565b6040518080602001806020018973ffffffffffffffffffffffffffffffffffffffff1673ffffffffffffffffffffffffffffffffffffffff168152602001888152602001878152602001868152602001851515151581526020018415151515815260200183810383528b818151815260200191508051906020019080838360005b8381101561033957808201518184015260208101905061031e565b50505050905090810190601f1680156103665780820380516001836020036101000a031916815260200191505b5083810382528a818151815260200191508051906020019080838360005b8381101561039f578082015181840152602081019050610384565b50505050905090810190601f1680156103cc5780820380516001836020036101000a031916815260200191505b509a505050505050505050505060405180910390f35b3480156103ee57600080fd5b506103f76114e3565b6040518080602001828103825283818151815260200191508051906020019060200280838360005b8381101561043a57808201518184015260208101905061041f565b505050509050019250505060405180910390f35b34801561045a57600080fd5b5061049d6004803603602081101561047157600080fd5b81019080803573ffffffffffffffffffffffffffffffffffffffff16906020019092919050505061153b565b604051808060200180602001838103835285818151815260200191508051906020019060200280838360005b838110156104e45780820151818401526020810190506104c9565b50505050905001838103825284818151815260200191508051906020019060200280838360005b8381101561052657808201518184015260208101905061050b565b5050505090500194505050505060405180910390f35b34801561054857600080fd5b506105756004803603602081101561055f57600080fd5b81019080803590602001909291905050506116da565b6040518084151515158152602001838152602001828152602001935050505060405180910390f35b3480156105a957600080fd5b5061068a600480360360808110156105c057600080fd5b81019080803590602001906401000000008111156105dd57600080fd5b8201836020820111156105ef57600080fd5b8035906020019184600183028401116401000000008311171561061157600080fd5b90919293919293908035906020019064010000000081111561063257600080fd5b82018360208201111561064457600080fd5b8035906020019184600183028401116401000000008311171561066657600080fd5b909192939192939080359060200190929190803590602001909291905050506117ad565b005b34801561069857600080fd5b506106a1611aa9565b6040518082815260200191505060405180910390f35b3480156106c357600080fd5b506106fa600480360360408110156106da57600080fd5b810190808035906020019092919080359060200190929190505050611aaf565b6040518084151515158152602001838152602001828152602001935050505060405180910390f35b34801561072e57600080fd5b5061080f6004803603608081101561074557600080fd5b810190808035906020019064010000000081111561076257600080fd5b82018360208201111561077457600080fd5b8035906020019184600183028401116401000000008311171561079657600080fd5b9091929391929390803590602001906401000000008111156107b757600080fd5b8201836020820111156107c957600080fd5b803590602001918460018302840111640100000000831117156107eb57600080fd5b90919293919293908035906020019092919080359060200190929190505050611b8a565b6040518082815260200191505060405180910390f35b34801561083157600080fd5b506108686004803603604081101561084857600080fd5b8101908080359060200190929190803590602001909291905050506120a3565b005b34801561087657600080fd5b506108a36004803603602081101561088d57600080fd5b8101908080359060200190929190505050612329565b6040518082815260200191505060405180910390f35b3480156108c557600080fd5b506108ce612579565b604051808273ffffffffffffffffffffffffffffffffffffffff1673ffffffffffffffffffffffffffffffffffffffff16815260200191505060405180910390f35b34801561091c57600080fd5b5061092561259f565b6040518082815260200191505060405180910390f35b34801561094757600080fd5b5061098a6004803603602081101561095e57600080fd5b81019080803573ffffffffffffffffffffffffffffffffffffffff1690602001909291905050506125a5565b005b34801561099857600080fd5b506109cf600480360360408110156109af57600080fd5b8101908080359060200190929190803590602001909291905050506126ab565b005b3480156109dd57600080fd5b506109e6612aee565b005b610abe600480360360608110156109fe57600080fd5b8101908080359060200190640100000000811115610a1b57600080fd5b820183602082011115610a2d57600080fd5b80359060200191846001830284011164010000000083111715610a4f57600080fd5b909192939192939080359060200190640100000000811115610a7057600080fd5b820183602082011115610a8257600080fd5b80359060200191846001830284011164010000000083111715610aa457600080fd5b909192939192939080359060200190929190505050612ce4565b005b348015610acc57600080fd5b50610af960048036036020811015610ae357600080fd5b8101908080359060200190929190505050612de0565b6040518080602001828103825283818151815260200191508051906020019060200280838360005b83811015610b3c578082015181840152602081019050610b21565b505050509050019250505060405180910390f35b348015610b5c57600080fd5b50610b65612f62565b6040518082815260200191505060405180910390f35b348015610b8757600080fd5b50610bb460048036036020811015610b9e57600080fd5b8101908080359060200190929190505050612f6f565b60405180848152602001838152602001828152602001935050505060405180910390f35b348015610be457600080fd5b50610c1b60048036036040811015610bfb57600080fd5b810190808035906020019092919080359060200190929190505050613042565b6040518084151515158152602001838152602001828152602001935050505060405180910390f35b348015610c4f57600080fd5b50610c9260048036036020811015610c6657600080fd5b81019080803573ffffffffffffffffffffffffffffffffffffffff16906020019092919050505061311d565b005b60006006600083815260200190815260200160002090508060060160009054906101000a900460ff16610cc657600080fd5b60008211610cd357600080fd5b80600401544211610ce357600080fd5b60008060009054906101000a900473ffffffffffffffffffffffffffffffffffffffff1673ffffffffffffffffffffffffffffffffffffffff1663a80209736040518163ffffffff1660e01b815260040160206040518083038186803b158015610d4c57600080fd5b505afa158015610d60573d6000803e3d6000fd5b505050506040513d6020811015610d7657600080fd5b810190808051906020019092919050505090506064610d9484612329565b10610ea65760018260060160016101000a81548160ff0219169083151502179055508073ffffffffffffffffffffffffffffffffffffffff1663a9059cbb8360020160009054906101000a900473ffffffffffffffffffffffffffffffffffffffff1684600501546040518363ffffffff1660e01b8152600401808373ffffffffffffffffffffffffffffffffffffffff1673ffffffffffffffffffffffffffffffffffffffff16815260200182815260200192505050602060405180830381600087803b158015610e6557600080fd5b505af1158015610e79573d6000803e3d6000fd5b505050506040513d6020811015610e8f57600080fd5b810190808051906020019092919050505050610f86565b600060076000858152602001908152602001600020905060008090505b8180549050811015610f8357818181548110610edb57fe5b906000526020600020906002020160010154600a6000848481548110610efd57fe5b906000526020600020906002020160000160009054906101000a900473ffffffffffffffffffffffffffffffffffffffff1673ffffffffffffffffffffffffffffffffffffffff1673ffffffffffffffffffffffffffffffffffffffff168152602001908152602001600020600082825401925050819055508080600101915050610ec3565b50505b600060096000858152602001908152602001600020549050600160058054905003811415610fc9576005805480919060019003610fc391906132dd565b50611052565b6000600560016005805490500381548110610fe057fe5b906000526020600020015490508060058381548110610ffb57fe5b9060005260206000200181905550816009600083815260200190815260200160002081905550600580548091906001900361103691906132dd565b5060006009600087815260200190815260200160002081905550505b60008360060160006101000a81548160ff0219169083151502179055507f769c308d4fdba3700f25352c34ea872c7dbe3a52475adf9650f609457ae71176848460060160019054906101000a900460ff1685600501546040518084815260200183151515158152602001828152602001935050505060405180910390a16000836005018190555050505050565b6000600a60008373ffffffffffffffffffffffffffffffffffffffff1673ffffffffffffffffffffffffffffffffffffffff168152602001908152602001600020549050919050565b6000806000806111396003546116da565b8093508194508295505050508261115657600093505050506111e3565b610e1042038111156111d1576000607890505b6109608110156111cf57611184600354603c83024203613042565b8094508195508296505050508380156111a05750610e10420382105b156111af5761096090506111c2565b836111c15760009450505050506111e3565b5b8080600101915050611169565b505b60045482816111dc57fe5b0493505050505b90565b6000809054906101000a900473ffffffffffffffffffffffffffffffffffffffff1673ffffffffffffffffffffffffffffffffffffffff16632639e0b034836040518363ffffffff1660e01b8152600401808281526020019150506000604051808303818588803b15801561125a57600080fd5b505af115801561126e573d6000803e3d6000fd5b505050505050565b60608060008060008060008061128a613309565b600660008b815260200190815260200160002060405180610100016040529081600082018054600181600116156101000203166002900480601f0160208091040260200160405190810160405280929190818152602001828054600181600116156101000203166002900480156113425780601f1061131757610100808354040283529160200191611342565b820191906000526020600020905b81548152906001019060200180831161132557829003601f168201915b50505050508152602001600182018054600181600116156101000203166002900480601f0160208091040260200160405190810160405280929190818152602001828054600181600116156101000203166002900480156113e45780601f106113b9576101008083540402835291602001916113e4565b820191906000526020600020905b8154815290600101906020018083116113c757829003601f168201915b505050505081526020016002820160009054906101000a900473ffffffffffffffffffffffffffffffffffffffff1673ffffffffffffffffffffffffffffffffffffffff1673ffffffffffffffffffffffffffffffffffffffff1681526020016003820154815260200160048201548152602001600582015481526020016006820160009054906101000a900460ff161515151581526020016006820160019054906101000a900460ff1615151515815250509050806000015181602001518260400151836060015184608001518560a001518660c001518760e001518797508696509850985098509850985098509850985050919395975091939597565b6060600580548060200260200160405190810160405280929190818152602001828054801561153157602002820191906000526020600020905b81548152602001906001019080831161151d575b5050505050905090565b6060806060600860008573ffffffffffffffffffffffffffffffffffffffff1673ffffffffffffffffffffffffffffffffffffffff168152602001908152602001600020805480602002602001604051908101604052809291908181526020016000905b828210156115e55783829060005260206000209060020201604051806040016040529081600082015481526020016001820154815250508152602001906001019061159f565b505050509050805160405190808252806020026020018201604052801561161b5781602001602082028038833980820191505090505b509250805160405190808252806020026020018201604052801561164e5781602001602082028038833980820191505090505b50915060008090505b81518110156116cd5781818151811061166c57fe5b60200260200101516000015184828151811061168457fe5b60200260200101818152505081818151811061169c57fe5b6020026020010151602001518382815181106116b457fe5b6020026020010181815250508080600101915050611657565b5082829250925050915091565b60008060008060009054906101000a900473ffffffffffffffffffffffffffffffffffffffff1673ffffffffffffffffffffffffffffffffffffffff16633fcad964856040518263ffffffff1660e01b81526004018082815260200191505060606040518083038186803b15801561175157600080fd5b505afa158015611765573d6000803e3d6000fd5b505050506040513d606081101561177b57600080fd5b810190808051906020019092919080519060200190929190805190602001909291905050509250925092509193909250565b60008060009054906101000a900473ffffffffffffffffffffffffffffffffffffffff1673ffffffffffffffffffffffffffffffffffffffff1663a80209736040518163ffffffff1660e01b815260040160206040518083038186803b15801561181657600080fd5b505afa15801561182a573d6000803e3d6000fd5b505050506040513d602081101561184057600080fd5b8101908080519060200190929190505050905060008211156119c5578073ffffffffffffffffffffffffffffffffffffffff166323b872dd3330856040518463ffffffff1660e01b8152600401808473ffffffffffffffffffffffffffffffffffffffff1673ffffffffffffffffffffffffffffffffffffffff1681526020018373ffffffffffffffffffffffffffffffffffffffff1673ffffffffffffffffffffffffffffffffffffffff1681526020018281526020019350505050602060405180830381600087803b15801561191757600080fd5b505af115801561192b573d6000803e3d6000fd5b505050506040513d602081101561194157600080fd5b81019080805190602001909291905050506119c4576040517f08c379a000000000000000000000000000000000000000000000000000000000815260040180806020018281038252600f8152602001807f5472616e73666572206661696c6564000000000000000000000000000000000081525060200191505060405180910390fd5b5b8073ffffffffffffffffffffffffffffffffffffffff16633fff28168888888888886040518763ffffffff1660e01b81526004018080602001806020018581526020018481526020018381038352898982818152602001925080828437600081840152601f19601f8201169050808301925050508381038252878782818152602001925080828437600081840152601f19601f82011690508083019250505098505050505050505050600060405180830381600087803b158015611a8857600080fd5b505af1158015611a9c573d6000803e3d6000fd5b5050505050505050505050565b60045481565b60008060008060009054906101000a900473ffffffffffffffffffffffffffffffffffffffff1673ffffffffffffffffffffffffffffffffffffffff16635f059f3e86866040518363ffffffff1660e01b8152600401808381526020018281526020019250505060606040518083038186803b158015611b2e57600080fd5b505afa158015611b42573d6000803e3d6000fd5b505050506040513d6060811015611b5857600080fd5b810190808051906020019092919080519060200190929190805190602001909291905050509250925092509250925092565b6000806000809054906101000a900473ffffffffffffffffffffffffffffffffffffffff1673ffffffffffffffffffffffffffffffffffffffff1663a80209736040518163ffffffff1660e01b815260040160206040518083038186803b158015611bf457600080fd5b505afa158015611c08573d6000803e3d6000fd5b505050506040513d6020811015611c1e57600080fd5b810190808051906020019092919050505090508073ffffffffffffffffffffffffffffffffffffffff166323b872dd3330670de0b6b3a76400006040518463ffffffff1660e01b8152600401808473ffffffffffffffffffffffffffffffffffffffff1673ffffffffffffffffffffffffffffffffffffffff1681526020018373ffffffffffffffffffffffffffffffffffffffff1673ffffffffffffffffffffffffffffffffffffffff1681526020018281526020019350505050602060405180830381600087803b158015611cf457600080fd5b505af1158015611d08573d6000803e3d6000fd5b505050506040513d6020811015611d1e57600080fd5b8101908080519060200190929190505050611da1576040517f08c379a00000000000000000000000000000000000000000000000000000000081526004018080602001828103825260178152602001807f56697267696e20536163726966696365204661696c656400000000000000000081525060200191505060405180910390fd5b601e8310611dae57600080fd5b600254915060026000815480929190600101919050555060405180610100016040528089898080601f016020809104026020016040519081016040528093929190818152602001838380828437600081840152601f19601f82011690508083019250505050505050815260200187878080601f016020809104026020016040519081016040528093929190818152602001838380828437600081840152601f19601f8201169050808301925050505050505081526020013373ffffffffffffffffffffffffffffffffffffffff168152602001858152602001620151808502420181526020016000815260200160011515815260200160001515815250600660008481526020019081526020016000206000820151816000019080519060200190611eda929190613368565b506020820151816001019080519060200190611ef7929190613368565b5060408201518160020160006101000a81548173ffffffffffffffffffffffffffffffffffffffff021916908373ffffffffffffffffffffffffffffffffffffffff160217905550606082015181600301556080820151816004015560a0820151816005015560c08201518160060160006101000a81548160ff02191690831515021790555060e08201518160060160016101000a81548160ff021916908315150217905550905050600580549050600960008481526020019081526020016000208190555060058290806001815401808255809150509060018203906000526020600020016000909192909190915055507f2139066e053196905e5351420c0068d9eaa024551a0b8198eeb4cbaa120c97d1828989898989896040518088815260200180602001806020018581526020018481526020018381038352898982818152602001925080828437600081840152601f19601f8201169050808301925050508381038252878782818152602001925080828437600081840152601f19601f820116905080830192505050995050505050505050505060405180910390a1509695505050505050565b60008060009054906101000a900473ffffffffffffffffffffffffffffffffffffffff1673ffffffffffffffffffffffffffffffffffffffff1663a80209736040518163ffffffff1660e01b815260040160206040518083038186803b15801561210c57600080fd5b505afa158015612120573d6000803e3d6000fd5b505050506040513d602081101561213657600080fd5b810190808051906020019092919050505090508073ffffffffffffffffffffffffffffffffffffffff166323b872dd3330856040518463ffffffff1660e01b8152600401808473ffffffffffffffffffffffffffffffffffffffff1673ffffffffffffffffffffffffffffffffffffffff1681526020018373ffffffffffffffffffffffffffffffffffffffff1673ffffffffffffffffffffffffffffffffffffffff1681526020018281526020019350505050602060405180830381600087803b15801561220457600080fd5b505af1158015612218573d6000803e3d6000fd5b505050506040513d602081101561222e57600080fd5b81019080805190602001909291905050506122b1576040517f08c379a000000000000000000000000000000000000000000000000000000000815260040180806020018281038252600f8152602001807f5472616e73666572206661696c6564000000000000000000000000000000000081525060200191505060405180910390fd5b8073ffffffffffffffffffffffffffffffffffffffff1663752d49a184846040518363ffffffff1660e01b81526004018083815260200182815260200192505050600060405180830381600087803b15801561230c57600080fd5b505af1158015612320573d6000803e3d6000fd5b50505050505050565b6000612333613309565b6006600084815260200190815260200160002060405180610100016040529081600082018054600181600116156101000203166002900480601f0160208091040260200160405190810160405280929190818152602001828054600181600116156101000203166002900480156123eb5780601f106123c0576101008083540402835291602001916123eb565b820191906000526020600020905b8154815290600101906020018083116123ce57829003601f168201915b50505050508152602001600182018054600181600116156101000203166002900480601f01602080910402602001604051908101604052809291908181526020018280546001816001161561010002031660029004801561248d5780601f106124625761010080835404028352916020019161248d565b820191906000526020600020905b81548152906001019060200180831161247057829003601f168201915b505050505081526020016002820160009054906101000a900473ffffffffffffffffffffffffffffffffffffffff1673ffffffffffffffffffffffffffffffffffffffff1673ffffffffffffffffffffffffffffffffffffffff1681526020016003820154815260200160048201548152602001600582015481526020016006820160009054906101000a900460ff161515151581526020016006820160019054906101000a900460ff16151515158152505090508060600151670de0b6b3a7640000612558611128565b8360a00151028161256557fe5b046064028161257057fe5b04915050919050565b600160009054906101000a900473ffffffffffffffffffffffffffffffffffffffff1681565b60035481565b600160009054906101000a900473ffffffffffffffffffffffffffffffffffffffff1673ffffffffffffffffffffffffffffffffffffffff163373ffffffffffffffffffffffffffffffffffffffff1614612668576040517f08c379a00000000000000000000000000000000000000000000000000000000081526004018080602001828103825260138152602001807f53656e646572206973206e6f74206f776e65720000000000000000000000000081525060200191505060405180910390fd5b806000806101000a81548173ffffffffffffffffffffffffffffffffffffffff021916908373ffffffffffffffffffffffffffffffffffffffff16021790555050565b600081116126b857600080fd5b60006006600084815260200190815260200160002090508060060160009054906101000a900460ff166126ea57600080fd5b60008060009054906101000a900473ffffffffffffffffffffffffffffffffffffffff1673ffffffffffffffffffffffffffffffffffffffff1663a80209736040518163ffffffff1660e01b815260040160206040518083038186803b15801561275357600080fd5b505afa158015612767573d6000803e3d6000fd5b505050506040513d602081101561277d57600080fd5b810190808051906020019092919050505090508073ffffffffffffffffffffffffffffffffffffffff166323b872dd3330866040518463ffffffff1660e01b8152600401808473ffffffffffffffffffffffffffffffffffffffff1673ffffffffffffffffffffffffffffffffffffffff1681526020018373ffffffffffffffffffffffffffffffffffffffff1673ffffffffffffffffffffffffffffffffffffffff1681526020018281526020019350505050602060405180830381600087803b15801561284b57600080fd5b505af115801561285f573d6000803e3d6000fd5b505050506040513d602081101561287557600080fd5b81019080805190602001909291905050506128f8576040517f08c379a000000000000000000000000000000000000000000000000000000000815260040180806020018281038252600e8152602001807f46756e64696e67204661696c656400000000000000000000000000000000000081525060200191505060405180910390fd5b6129006133e8565b6040518060400160405280868152602001858152509050600860003373ffffffffffffffffffffffffffffffffffffffff1673ffffffffffffffffffffffffffffffffffffffff168152602001908152602001600020819080600181540180825580915050906001820390600052602060002090600202016000909192909190915060008201518160000155602082015181600101555050508383600501600082825401925050819055506129b3613402565b60405180604001604052803373ffffffffffffffffffffffffffffffffffffffff16815260200186815250905060076000878152602001908152602001600020819080600181540180825580915050906001820390600052602060002090600202016000909192909190915060008201518160000160006101000a81548173ffffffffffffffffffffffffffffffffffffffff021916908373ffffffffffffffffffffffffffffffffffffffff160217905550602082015181600101555050507f5b47478b1a9bcccc0683800f537f513a17c66ebb7a9b7e2773053b37fc83bb05863387604051808481526020018373ffffffffffffffffffffffffffffffffffffffff1673ffffffffffffffffffffffffffffffffffffffff168152602001828152602001935050505060405180910390a1505050505050565b60008060009054906101000a900473ffffffffffffffffffffffffffffffffffffffff1673ffffffffffffffffffffffffffffffffffffffff1663a80209736040518163ffffffff1660e01b815260040160206040518083038186803b158015612b5757600080fd5b505afa158015612b6b573d6000803e3d6000fd5b505050506040513d6020811015612b8157600080fd5b810190808051906020019092919050505090506000600a60003373ffffffffffffffffffffffffffffffffffffffff1673ffffffffffffffffffffffffffffffffffffffff1681526020019081526020016000205490506000600a60003373ffffffffffffffffffffffffffffffffffffffff1673ffffffffffffffffffffffffffffffffffffffff168152602001908152602001600020819055508173ffffffffffffffffffffffffffffffffffffffff1663a9059cbb33836040518363ffffffff1660e01b8152600401808373ffffffffffffffffffffffffffffffffffffffff1673ffffffffffffffffffffffffffffffffffffffff16815260200182815260200192505050602060405180830381600087803b158015612ca457600080fd5b505af1158015612cb8573d6000803e3d6000fd5b505050506040513d6020811015612cce57600080fd5b8101908080519060200190929190505050505050565b6000809054906101000a900473ffffffffffffffffffffffffffffffffffffffff1673ffffffffffffffffffffffffffffffffffffffff1663bb19e2963487878787876040518763ffffffff1660e01b81526004018080602001806020018481526020018381038352888882818152602001925080828437600081840152601f19601f8201169050808301925050508381038252868682818152602001925080828437600081840152601f19601f8201169050808301925050509750505050505050506000604051808303818588803b158015612dc057600080fd5b505af1158015612dd4573d6000803e3d6000fd5b50505050505050505050565b60608060076000848152602001908152602001600020805480602002602001604051908101604052809291908181526020016000905b82821015612ea857838290600052602060002090600202016040518060400160405290816000820160009054906101000a900473ffffffffffffffffffffffffffffffffffffffff1673ffffffffffffffffffffffffffffffffffffffff1673ffffffffffffffffffffffffffffffffffffffff16815260200160018201548152505081526020019060010190612e16565b5050505090508051604051908082528060200260200182016040528015612ede5781602001602082028038833980820191505090505b50915060008090505b8151811015612f5b57818181518110612efc57fe5b602002602001015160000151838281518110612f1457fe5b602002602001019073ffffffffffffffffffffffffffffffffffffffff16908173ffffffffffffffffffffffffffffffffffffffff16815250508080600101915050612ee7565b5050919050565b6000600160025403905090565b60008060008060009054906101000a900473ffffffffffffffffffffffffffffffffffffffff1673ffffffffffffffffffffffffffffffffffffffff1663d09cc57e856040518263ffffffff1660e01b81526004018082815260200191505060606040518083038186803b158015612fe657600080fd5b505afa158015612ffa573d6000803e3d6000fd5b505050506040513d606081101561301057600080fd5b810190808051906020019092919080519060200190929190805190602001909291905050509250925092509193909250565b60008060008060009054906101000a900473ffffffffffffffffffffffffffffffffffffffff1673ffffffffffffffffffffffffffffffffffffffff1663d269a83c86866040518363ffffffff1660e01b8152600401808381526020018281526020019250505060606040518083038186803b1580156130c157600080fd5b505afa1580156130d5573d6000803e3d6000fd5b505050506040513d60608110156130eb57600080fd5b810190808051906020019092919080519060200190929190805190602001909291905050509250925092509250925092565b600160009054906101000a900473ffffffffffffffffffffffffffffffffffffffff1673ffffffffffffffffffffffffffffffffffffffff163373ffffffffffffffffffffffffffffffffffffffff16146131e0576040517f08c379a00000000000000000000000000000000000000000000000000000000081526004018080602001828103825260138152602001807f53656e646572206973206e6f74206f776e65720000000000000000000000000081525060200191505060405180910390fd5b7f8be0079c531659141344cd1fd0a4f28419497f9722a3daafe3b4186f6b6457e0600160009054906101000a900473ffffffffffffffffffffffffffffffffffffffff1682604051808373ffffffffffffffffffffffffffffffffffffffff1673ffffffffffffffffffffffffffffffffffffffff1681526020018273ffffffffffffffffffffffffffffffffffffffff1673ffffffffffffffffffffffffffffffffffffffff1681526020019250505060405180910390a180600160006101000a81548173ffffffffffffffffffffffffffffffffffffffff021916908373ffffffffffffffffffffffffffffffffffffffff16021790555050565b815481835581811115613304578183600052602060002091820191016133039190613432565b5b505050565b6040518061010001604052806060815260200160608152602001600073ffffffffffffffffffffffffffffffffffffffff1681526020016000815260200160008152602001600081526020016000151581526020016000151581525090565b828054600181600116156101000203166002900490600052602060002090601f016020900481019282601f106133a957805160ff19168380011785556133d7565b828001600101855582156133d7579182015b828111156133d65782518255916020019190600101906133bb565b5b5090506133e49190613432565b5090565b604051806040016040528060008152602001600081525090565b6040518060400160405280600073ffffffffffffffffffffffffffffffffffffffff168152602001600081525090565b61345491905b80821115613450576000816000905550600101613438565b5090565b9056fea165627a7a72305820640875967843c8f6583a1629310c5832fe50e2df34dbce0ce8f826c47ef76c170029",
  "source": "pragma solidity >=0.4.21;\nimport \"usingtellor/contracts/UsingTellor.sol\";\n\n\ncontract TellorFund is UsingTellor{\n\n\tuint private proposalCount;\n\tuint public tellorPriceID;\n\tuint public granularity;\n\tuint[] openProposals;\n\n\tstruct Proposal{\n\t\tstring title;\n\t\tstring description;\n\t\taddress owner;\n\t\tuint minAmountUSD;\n\t\tuint expirationDate;\n\t\tuint trbBalance;\n\t\tbool open;\n\t\tbool passed;\n\t}\n\n\tstruct Funder{\n\t\taddress funder;\n\t\tuint amount;\n\t}\n\n\tstruct Statement{\n\t\tuint id;\n\t\tuint amount;\n\t}\n\tmapping(uint => Proposal) idToProposal;\n\tmapping(uint => Funder[]) idToFunders;\n\tmapping(address => Statement[]) addressToStatements;\n\tmapping(uint => uint) idToOpenIndex;\n\tmapping(address => uint) availableForWithdraw;\n\n\tevent NewProposal(uint _id,string _title,string _desc,uint _minAmountUSD,uint _daystilComplete);\n\tevent ProposalFunded(uint _id, address _funder, uint _amount);\n\tevent ProposalClosed(uint _id, bool _funded, uint _amount);\n\n    constructor(address _userContract, uint _tellorPriceID, uint _granularity) public UsingTellor(_userContract){\n    \tproposalCount = 1;\n    \ttellorPriceID = _tellorPriceID;\n    \tgranularity = _granularity;\n    \topenProposals.length++;\n    }\n\n\n    //be sure to approve first\n\tfunction createProposal(string calldata _title, string calldata _desc,uint _minAmountUSD, uint _daystilComplete) external returns(uint _id){\n\t\tTellor _tellor = Tellor(tellorUserContract.tellorStorageAddress());\n        require(_tellor.transferFrom(msg.sender,address(this),1e18), \"Virgin Sacrifice Failed\");\n\t\trequire(_daystilComplete < 30);\n\t\t_id = proposalCount;\n\t\tproposalCount++;\n\t\tidToProposal[_id] = Proposal({\n\t\t\ttitle:_title,\n\t\t\tdescription:_desc,\n\t\t\towner:msg.sender,\n\t\t\tminAmountUSD:_minAmountUSD,\n\t\t\texpirationDate:now + _daystilComplete * 86400,\n\t\t\ttrbBalance:0,\n\t\t\topen:true,\n\t\t\tpassed:false\n\t\t});\n\t\tidToOpenIndex[_id] = openProposals.length;\n\t\topenProposals.push(_id);\n\n\n\temit NewProposal(_id,_title,_desc,_minAmountUSD,_daystilComplete);\n\t}\n\n\tfunction fund(uint _id, uint _amountTRB) external {\n\t\trequire(_amountTRB > 0);\n\t\tProposal storage thisProp = idToProposal[_id];\n\t\trequire(thisProp.open);\n\t\tTellor _tellor = Tellor(tellorUserContract.tellorStorageAddress());\n        require(_tellor.transferFrom(msg.sender,address(this),_amountTRB), \"Funding Failed\");\n        Statement memory thisStatement= Statement({\n        \tid:_id,\n        \tamount:_amountTRB\n        \t});\n        addressToStatements[msg.sender].push(thisStatement);\n        thisProp.trbBalance += _amountTRB;\n\n        Funder memory thisFunder = Funder({\n        \tfunder:msg.sender,\n        \tamount:_amountTRB\n        });\n        idToFunders[_id].push(thisFunder);\n        emit ProposalFunded(_id,msg.sender,_amountTRB);\n\n\t}\n\n\tfunction closeProposal(uint _id) external{\n\t\tProposal storage thisProp = idToProposal[_id];\n\t\trequire(thisProp.open);\n\t\trequire(_id > 0);\n\t\trequire(now > thisProp.expirationDate);\n\t\tTellor _tellor = Tellor(tellorUserContract.tellorStorageAddress());\n\t\tif(percentFunded(_id) >= 100){\n\t\t\tthisProp.passed = true;\n\t\t\t_tellor.transfer(thisProp.owner,thisProp.trbBalance);\n\t\t}\n\t\telse{\n\t\t\tFunder[] storage theseFunders = idToFunders[_id];\n\t\t\tfor(uint i=0;i < theseFunders.length;i++){\n\t\t\t\tavailableForWithdraw[theseFunders[i].funder] += theseFunders[i].amount; \n\t\t\t}\n\t\t}\n\t\tuint _index = idToOpenIndex[_id];\n\t\tif(_index == openProposals.length - 1){\n\t\t\topenProposals.length--;\n\t\t}\n\t\telse{\n\t\t\tuint _lastId = openProposals[openProposals.length - 1];\n\t\t\topenProposals[_index] = _lastId;\n\t\t\tidToOpenIndex[_lastId] = _index;\n\t\t\topenProposals.length--;\n\t\t\tidToOpenIndex[_id] = 0;\n\t\t}\n\t\tthisProp.open = false;\n\t\temit ProposalClosed(_id,thisProp.passed,thisProp.trbBalance);\n\t\tthisProp.trbBalance = 0;\n\t}\n\n \tfunction withdrawMoney() external{\n \t\tTellor _tellor = Tellor(tellorUserContract.tellorStorageAddress());\n \t\tuint _amt = availableForWithdraw[msg.sender];\n \t\tavailableForWithdraw[msg.sender] =0;\n\t\t_tellor.transfer(msg.sender,_amt);\n \t}\n\n\tfunction getAllOpenProposals() external view returns(uint[] memory){\n\t\treturn openProposals;\n\t}\n\n\tfunction getAvailableForWithdraw(address _user) external returns(uint){\n\t\treturn availableForWithdraw[_user];\n\t}\n\n\tfunction getProposalById(uint _id) external view returns(string memory,string memory,address,uint,uint,uint,bool,bool){\n\t\tProposal memory t = idToProposal[_id];\n\t\treturn (t.title,t.description,t.owner,t.minAmountUSD,t.expirationDate,t.trbBalance,t.open,t.passed);\n\t}\n\n\n\tfunction getProposalsByAddress(address _funder) public view returns(uint[] memory propArray,uint[] memory amountArray){\n\t\tStatement[] memory theseStatements = addressToStatements[_funder];\n\t\tpropArray = new uint[](theseStatements.length);\n\t\tamountArray = new uint[](theseStatements.length);\n\t\tfor(uint i=0;i < theseStatements.length;i++){\n\t\t\tpropArray[i] = theseStatements[i].id;\n\t\t\tamountArray[i]= theseStatements[i].amount;\n\t\t}\n\t\treturn (propArray,amountArray);\n\t}\n\n\tfunction getAddressesById(uint _id) public view returns(address[] memory addArray){\n\t\t\tFunder[] memory theseFunders = idToFunders[_id];\n\t\t\taddArray = new address[](theseFunders.length);\n\t\t\tfor(uint i=0;i < theseFunders.length;i++){\n\t\t\t\taddArray[i] = theseFunders[i].funder;\n\t\t\t}\n\t}\n\n\tfunction percentFunded(uint _id) public view returns(uint){\n\t\t\tProposal memory thisProp = idToProposal[_id];\n\t\t\treturn  100 * (thisProp.trbBalance* viewTellorPrice()/1e18) / thisProp.minAmountUSD ;\n\t}\n\n\tfunction viewTellorPrice() public view returns(uint){\n\t\tbool _didget;\n\t\tuint _value;\n\t\tuint _timestamp;\n\t\t(_didget,_value,_timestamp) = getCurrentValue(tellorPriceID);\n\t\tif(!_didget){\n\t\t\treturn 0;\n\t\t}\n\t\telse if(_timestamp > now - 60 minutes){\n\t\t\tfor(uint i=120;i< 2400;i++){\n\t\t\t\t(_didget,_value,_timestamp) = getAnyDataAfter(tellorPriceID,now - i * 60);\n\t\t\t\tif(_didget && _timestamp < now - 60 minutes){\n\t\t\t\t\ti = 2400;\n\t\t\t\t}\n\t\t\t\telse if(!_didget){\n\t\t\t\t\treturn 0;\n\t\t\t\t}\n\t\t\t}\n\n\t\t}\n\t\treturn _value/granularity;\n\t}\n\n\tfunction getProposalCount() public view returns(uint){\n\t\treturn proposalCount -1;\n\t}\n}\n",
  "sourcePath": "C:/company/code/tellor.fund/contracts/TellorFund.sol",
  "compiler": {
    "name": "solc",
    "version": "0.5.8+commit.23d335f2.Emscripten.clang"
  },
  "schemaVersion": "3.0.16",
  "updatedAt": "2020-02-05T20:29:45.114Z",
  "devdoc": {
    "methods": {
      "addTip(uint256,uint256)": {
        "details": "Allows the user to tip miners for the specified request using Tributes\r",
        "params": {
          "_requestId": "to tip\r",
          "_tip": "amount\r"
        }
      },
      "addTipWithEther(uint256)": {
        "details": "Allows user to add tip with Ether by sending the ETH to the userContract and exchanging it for Tributes\r at the price specified by the userContract owner.\r",
        "params": {
          "_requestId": "to tip\r"
        }
      },
      "getAnyDataAfter(uint256,uint256)": {
        "details": "Allows the user to get the first value for the requestId after the specified timestamp\r",
        "params": {
          "_requestId": "is the requestId to look up the value for\r",
          "_timestamp": "after which to search for first verified value\r"
        },
        "return": "bool true if it is able to retreive a value, the value, and the value's timestamp\r"
      },
      "getCurrentValue(uint256)": {
        "details": "Allows the user to get the latest value for the requestId specified\r",
        "params": {
          "_requestId": "is the requestId to look up the value for\r"
        },
        "return": "bool true if it is able to retreive a value, the value, and the value's timestamp\r"
      },
      "getFirstVerifiedDataAfter(uint256,uint256)": {
        "details": "Allows the user to get the first verified value for the requestId after the specified timestamp\r",
        "params": {
          "_requestId": "is the requestId to look up the value for\r",
          "_timestamp": "after which to search for first verified value\r"
        },
        "return": "bool true if it is able to retreive a value, the value, and the value's timestamp, the timestamp after\r which it searched for the first verified value\r"
      },
      "requestData(string,string,uint256,uint256)": {
        "details": "Allows the user to submit a request for data to the oracle using Tributes\r Allowing this prevents us from increasing spread too high (since if we set the price too hight\r users will just go to an exchange and get tokens from there)\r",
        "params": {
          "_granularity": "is the number of decimals miners should include on the submitted value\r",
          "_request": "string API being requested to be mined\r",
          "_symbol": "is the short string symbol for the api request\r",
          "_tip": "amount the requester is willing to pay to be get on queue. Miners\r mine the onDeckQueryHash, or the api with the highest payout pool\r"
        }
      },
      "requestDataWithEther(string,string,uint256)": {
        "details": "Allows the user to submit a request for data to the oracle using ETH\r",
        "params": {
          "_granularity": "is the number of decimals miners should include on the submitted value\r",
          "_request": "string API being requested to be mined\r",
          "_symbol": "is the short string symbol for the api request\r"
        }
      },
      "resultFor(bytes32)": {
        "details": "Allows the user to get the latest value for the requestId specified using the \r ADO specification for the standard inteface for price oracles\r",
        "params": {
          "_bytesId": "is the ADO standarized bytes32 price/key value pair identifier\r"
        },
        "return": "the timestamp, outcome or value/ and the status code (for retreived, null, etc...)\r"
      },
      "setUserContract(address)": {
        "details": "allows owner to set the user contract address\r",
        "params": {
          "_userContract": "address\r"
        }
      },
      "transferOwnership(address)": {
        "details": "allows owner to transfer ownership\r",
        "params": {
          "_newOwner": "address\r"
        }
      }
    }
  },
  "userdoc": {
    "methods": {}
  }
}