{
  "contractName": "TellorFund",
  "abi": [
    {
      "constant": false,
      "inputs": [
        {
          "name": "_requestId",
          "type": "uint256"
        }
      ],
      "name": "addTipWithEther",
      "outputs": [],
      "payable": true,
      "stateMutability": "payable",
      "type": "function"
    },
    {
      "constant": true,
      "inputs": [
        {
          "name": "_requestId",
          "type": "uint256"
        }
      ],
      "name": "getCurrentValue",
      "outputs": [
        {
          "name": "ifRetrieve",
          "type": "bool"
        },
        {
          "name": "value",
          "type": "uint256"
        },
        {
          "name": "_timestampRetrieved",
          "type": "uint256"
        }
      ],
      "payable": false,
      "stateMutability": "view",
      "type": "function"
    },
    {
      "constant": false,
      "inputs": [
        {
          "name": "_request",
          "type": "string"
        },
        {
          "name": "_symbol",
          "type": "string"
        },
        {
          "name": "_granularity",
          "type": "uint256"
        },
        {
          "name": "_tip",
          "type": "uint256"
        }
      ],
      "name": "requestData",
      "outputs": [],
      "payable": false,
      "stateMutability": "nonpayable",
      "type": "function"
    },
    {
      "constant": true,
      "inputs": [],
      "name": "granularity",
      "outputs": [
        {
          "name": "",
          "type": "uint256"
        }
      ],
      "payable": false,
      "stateMutability": "view",
      "type": "function"
    },
    {
      "constant": true,
      "inputs": [
        {
          "name": "_requestId",
          "type": "uint256"
        },
        {
          "name": "_timestamp",
          "type": "uint256"
        }
      ],
      "name": "getFirstVerifiedDataAfter",
      "outputs": [
        {
          "name": "",
          "type": "bool"
        },
        {
          "name": "",
          "type": "uint256"
        },
        {
          "name": "_timestampRetrieved",
          "type": "uint256"
        }
      ],
      "payable": false,
      "stateMutability": "view",
      "type": "function"
    },
    {
      "constant": false,
      "inputs": [
        {
          "name": "_requestId",
          "type": "uint256"
        },
        {
          "name": "_tip",
          "type": "uint256"
        }
      ],
      "name": "addTip",
      "outputs": [],
      "payable": false,
      "stateMutability": "nonpayable",
      "type": "function"
    },
    {
      "constant": true,
      "inputs": [],
      "name": "owner",
      "outputs": [
        {
          "name": "",
          "type": "address"
        }
      ],
      "payable": false,
      "stateMutability": "view",
      "type": "function"
    },
    {
      "constant": true,
      "inputs": [],
      "name": "tellorPriceID",
      "outputs": [
        {
          "name": "",
          "type": "uint256"
        }
      ],
      "payable": false,
      "stateMutability": "view",
      "type": "function"
    },
    {
      "constant": false,
      "inputs": [
        {
          "name": "_userContract",
          "type": "address"
        }
      ],
      "name": "setUserContract",
      "outputs": [],
      "payable": false,
      "stateMutability": "nonpayable",
      "type": "function"
    },
    {
      "constant": false,
      "inputs": [
        {
          "name": "_request",
          "type": "string"
        },
        {
          "name": "_symbol",
          "type": "string"
        },
        {
          "name": "_granularity",
          "type": "uint256"
        }
      ],
      "name": "requestDataWithEther",
      "outputs": [],
      "payable": true,
      "stateMutability": "payable",
      "type": "function"
    },
    {
      "constant": true,
      "inputs": [
        {
          "name": "_bytesId",
          "type": "bytes32"
        }
      ],
      "name": "resultFor",
      "outputs": [
        {
          "name": "timestamp",
          "type": "uint256"
        },
        {
          "name": "outcome",
          "type": "int256"
        },
        {
          "name": "status",
          "type": "int256"
        }
      ],
      "payable": false,
      "stateMutability": "view",
      "type": "function"
    },
    {
      "constant": true,
      "inputs": [
        {
          "name": "_requestId",
          "type": "uint256"
        },
        {
          "name": "_timestamp",
          "type": "uint256"
        }
      ],
      "name": "getAnyDataAfter",
      "outputs": [
        {
          "name": "_ifRetrieve",
          "type": "bool"
        },
        {
          "name": "_value",
          "type": "uint256"
        },
        {
          "name": "_timestampRetrieved",
          "type": "uint256"
        }
      ],
      "payable": false,
      "stateMutability": "view",
      "type": "function"
    },
    {
      "constant": false,
      "inputs": [
        {
          "name": "_newOwner",
          "type": "address"
        }
      ],
      "name": "transferOwnership",
      "outputs": [],
      "payable": false,
      "stateMutability": "nonpayable",
      "type": "function"
    },
    {
      "inputs": [
        {
          "name": "_userContract",
          "type": "address"
        },
        {
          "name": "_tellorPriceID",
          "type": "uint256"
        },
        {
          "name": "_granularity",
          "type": "uint256"
        }
      ],
      "payable": false,
      "stateMutability": "nonpayable",
      "type": "constructor"
    },
    {
      "anonymous": false,
      "inputs": [
        {
          "indexed": false,
          "name": "_id",
          "type": "uint256"
        },
        {
          "indexed": false,
          "name": "_title",
          "type": "string"
        },
        {
          "indexed": false,
          "name": "_desc",
          "type": "string"
        },
        {
          "indexed": false,
          "name": "_minAmountUSD",
          "type": "uint256"
        },
        {
          "indexed": false,
          "name": "_daystilComplete",
          "type": "uint256"
        }
      ],
      "name": "NewProposal",
      "type": "event"
    },
    {
      "anonymous": false,
      "inputs": [
        {
          "indexed": false,
          "name": "_id",
          "type": "uint256"
        },
        {
          "indexed": false,
          "name": "_funder",
          "type": "address"
        },
        {
          "indexed": false,
          "name": "_amount",
          "type": "uint256"
        }
      ],
      "name": "ProposalFunded",
      "type": "event"
    },
    {
      "anonymous": false,
      "inputs": [
        {
          "indexed": false,
          "name": "_id",
          "type": "uint256"
        },
        {
          "indexed": false,
          "name": "_funded",
          "type": "bool"
        },
        {
          "indexed": false,
          "name": "_amount",
          "type": "uint256"
        }
      ],
      "name": "ProposalClosed",
      "type": "event"
    },
    {
      "anonymous": false,
      "inputs": [
        {
          "indexed": false,
          "name": "_previousOwner",
          "type": "address"
        },
        {
          "indexed": false,
          "name": "_newOwner",
          "type": "address"
        }
      ],
      "name": "OwnershipTransferred",
      "type": "event"
    },
    {
      "constant": false,
      "inputs": [
        {
          "name": "_title",
          "type": "string"
        },
        {
          "name": "_desc",
          "type": "string"
        },
        {
          "name": "_minAmountUSD",
          "type": "uint256"
        },
        {
          "name": "_daystilComplete",
          "type": "uint256"
        }
      ],
      "name": "createProposal",
      "outputs": [
        {
          "name": "_id",
          "type": "uint256"
        }
      ],
      "payable": false,
      "stateMutability": "nonpayable",
      "type": "function"
    },
    {
      "constant": false,
      "inputs": [
        {
          "name": "_id",
          "type": "uint256"
        },
        {
          "name": "_amountTRB",
          "type": "uint256"
        }
      ],
      "name": "fund",
      "outputs": [],
      "payable": false,
      "stateMutability": "nonpayable",
      "type": "function"
    },
    {
      "constant": false,
      "inputs": [
        {
          "name": "_id",
          "type": "uint256"
        }
      ],
      "name": "closeProposal",
      "outputs": [],
      "payable": false,
      "stateMutability": "nonpayable",
      "type": "function"
    },
    {
      "constant": false,
      "inputs": [],
      "name": "withdrawMoney",
      "outputs": [],
      "payable": false,
      "stateMutability": "nonpayable",
      "type": "function"
    },
    {
      "constant": true,
      "inputs": [],
      "name": "getAllOpenProposals",
      "outputs": [
        {
          "name": "",
          "type": "uint256[]"
        }
      ],
      "payable": false,
      "stateMutability": "view",
      "type": "function"
    },
    {
      "constant": false,
      "inputs": [
        {
          "name": "_user",
          "type": "address"
        }
      ],
      "name": "getAvailableForWithdraw",
      "outputs": [
        {
          "name": "",
          "type": "uint256"
        }
      ],
      "payable": false,
      "stateMutability": "nonpayable",
      "type": "function"
    },
    {
      "constant": true,
      "inputs": [
        {
          "name": "_id",
          "type": "uint256"
        }
      ],
      "name": "getProposalById",
      "outputs": [
        {
          "name": "",
          "type": "string"
        },
        {
          "name": "",
          "type": "string"
        },
        {
          "name": "",
          "type": "address"
        },
        {
          "name": "",
          "type": "uint256"
        },
        {
          "name": "",
          "type": "uint256"
        },
        {
          "name": "",
          "type": "uint256"
        },
        {
          "name": "",
          "type": "bool"
        },
        {
          "name": "",
          "type": "bool"
        },
        {
          "name": "",
          "type": "uint256"
        }
      ],
      "payable": false,
      "stateMutability": "view",
      "type": "function"
    },
    {
      "constant": true,
      "inputs": [
        {
          "name": "_funder",
          "type": "address"
        }
      ],
      "name": "getProposalsByAddress",
      "outputs": [
        {
          "name": "propArray",
          "type": "uint256[]"
        },
        {
          "name": "amountArray",
          "type": "uint256[]"
        }
      ],
      "payable": false,
      "stateMutability": "view",
      "type": "function"
    },
    {
      "constant": true,
      "inputs": [
        {
          "name": "_id",
          "type": "uint256"
        }
      ],
      "name": "getAddressesById",
      "outputs": [
        {
          "name": "addArray",
          "type": "address[]"
        }
      ],
      "payable": false,
      "stateMutability": "view",
      "type": "function"
    },
    {
      "constant": true,
      "inputs": [
        {
          "name": "_id",
          "type": "uint256"
        }
      ],
      "name": "percentFunded",
      "outputs": [
        {
          "name": "",
          "type": "uint256"
        }
      ],
      "payable": false,
      "stateMutability": "view",
      "type": "function"
    },
    {
      "constant": true,
      "inputs": [],
      "name": "viewTellorPrice",
      "outputs": [
        {
          "name": "",
          "type": "uint256"
        }
      ],
      "payable": false,
      "stateMutability": "view",
      "type": "function"
    },
    {
      "constant": true,
      "inputs": [],
      "name": "getProposalCount",
      "outputs": [
        {
          "name": "",
          "type": "uint256"
        }
      ],
      "payable": false,
      "stateMutability": "view",
      "type": "function"
    },
    {
      "constant": true,
      "inputs": [],
      "name": "tellorAddress",
      "outputs": [
        {
          "name": "",
          "type": "address"
        }
      ],
      "payable": false,
      "stateMutability": "view",
      "type": "function"
    }
  ],
  "bytecode": "0x60806040523480156200001157600080fd5b5060405160608062003801833981018060405260608110156200003357600080fd5b8101908080519060200190929190805190602001909291908051906020019092919050505082806000806101000a81548173ffffffffffffffffffffffffffffffffffffffff021916908373ffffffffffffffffffffffffffffffffffffffff16021790555033600160006101000a81548173ffffffffffffffffffffffffffffffffffffffff021916908373ffffffffffffffffffffffffffffffffffffffff16021790555050600160028190555081600381905550806004819055506005805480919060010162000107919062000111565b5050505062000168565b8154818355818111156200013b578183600052602060002091820191016200013a919062000140565b5b505050565b6200016591905b808211156200016157600081600090555060010162000147565b5090565b90565b61368980620001786000396000f3fe6080604052600436106101815760003560e01c8063752d49a1116100d1578063ac4460021161008a578063c08cc02d11610064578063c08cc02d14610bc9578063d09cc57e14610bf4578063d269a83c14610c51578063f2fde38b14610cbc57610181565b8063ac44600214610a4a578063bb19e29614610a61578063be407cf214610b3957610181565b8063752d49a11461089e578063811ad5e3146108e35780638da5cb5b14610932578063a11a12e214610989578063a1206d4e146109b4578063a65e2cfd14610a0557610181565b80633aedd6611161013e5780633fff2816116101185780633fff281614610616578063556f0dc7146107055780635f059f3e146107305780636b5e17661461079b57610181565b80633aedd6611461045b5780633ed2ab0a146104c75780633fcad964146105b557610181565b80630386a016146101865780630fc8deca146101c157806316c039c7146102265780632639e0b0146102515780633347c8fe1461027f5780633656de21146102d6575b600080fd5b34801561019257600080fd5b506101bf600480360360208110156101a957600080fd5b8101908080359060200190929190505050610d0d565b005b3480156101cd57600080fd5b50610210600480360360208110156101e457600080fd5b81019080803573ffffffffffffffffffffffffffffffffffffffff169060200190929190505050611158565b6040518082815260200191505060405180910390f35b34801561023257600080fd5b5061023b6111a1565b6040518082815260200191505060405180910390f35b61027d6004803603602081101561026757600080fd5b8101908080359060200190929190505050611262565b005b34801561028b57600080fd5b506102946112f2565b604051808273ffffffffffffffffffffffffffffffffffffffff1673ffffffffffffffffffffffffffffffffffffffff16815260200191505060405180910390f35b3480156102e257600080fd5b5061030f600480360360208110156102f957600080fd5b810190808035906020019092919050505061139b565b6040518080602001806020018a73ffffffffffffffffffffffffffffffffffffffff1673ffffffffffffffffffffffffffffffffffffffff168152602001898152602001888152602001878152602001861515151581526020018515151515815260200184815260200183810383528c818151815260200191508051906020019080838360005b838110156103b1578082015181840152602081019050610396565b50505050905090810190601f1680156103de5780820380516001836020036101000a031916815260200191505b5083810382528b818151815260200191508051906020019080838360005b838110156104175780820151818401526020810190506103fc565b50505050905090810190601f1680156104445780820380516001836020036101000a031916815260200191505b509b50505050505050505050505060405180910390f35b34801561046757600080fd5b5061047061163e565b6040518080602001828103825283818151815260200191508051906020019060200280838360005b838110156104b3578082015181840152602081019050610498565b505050509050019250505060405180910390f35b3480156104d357600080fd5b50610516600480360360208110156104ea57600080fd5b81019080803573ffffffffffffffffffffffffffffffffffffffff169060200190929190505050611696565b604051808060200180602001838103835285818151815260200191508051906020019060200280838360005b8381101561055d578082015181840152602081019050610542565b50505050905001838103825284818151815260200191508051906020019060200280838360005b8381101561059f578082015181840152602081019050610584565b5050505090500194505050505060405180910390f35b3480156105c157600080fd5b506105ee600480360360208110156105d857600080fd5b8101908080359060200190929190505050611835565b6040518084151515158152602001838152602001828152602001935050505060405180910390f35b34801561062257600080fd5b506107036004803603608081101561063957600080fd5b810190808035906020019064010000000081111561065657600080fd5b82018360208201111561066857600080fd5b8035906020019184600183028401116401000000008311171561068a57600080fd5b9091929391929390803590602001906401000000008111156106ab57600080fd5b8201836020820111156106bd57600080fd5b803590602001918460018302840111640100000000831117156106df57600080fd5b90919293919293908035906020019092919080359060200190929190505050611908565b005b34801561071157600080fd5b5061071a611c04565b6040518082815260200191505060405180910390f35b34801561073c57600080fd5b506107736004803603604081101561075357600080fd5b810190808035906020019092919080359060200190929190505050611c0a565b6040518084151515158152602001838152602001828152602001935050505060405180910390f35b3480156107a757600080fd5b50610888600480360360808110156107be57600080fd5b81019080803590602001906401000000008111156107db57600080fd5b8201836020820111156107ed57600080fd5b8035906020019184600183028401116401000000008311171561080f57600080fd5b90919293919293908035906020019064010000000081111561083057600080fd5b82018360208201111561084257600080fd5b8035906020019184600183028401116401000000008311171561086457600080fd5b90919293919293908035906020019092919080359060200190929190505050611ce5565b6040518082815260200191505060405180910390f35b3480156108aa57600080fd5b506108e1600480360360408110156108c157600080fd5b810190808035906020019092919080359060200190929190505050612284565b005b3480156108ef57600080fd5b5061091c6004803603602081101561090657600080fd5b810190808035906020019092919050505061250a565b6040518082815260200191505060405180910390f35b34801561093e57600080fd5b50610947612757565b604051808273ffffffffffffffffffffffffffffffffffffffff1673ffffffffffffffffffffffffffffffffffffffff16815260200191505060405180910390f35b34801561099557600080fd5b5061099e61277d565b6040518082815260200191505060405180910390f35b3480156109c057600080fd5b50610a03600480360360208110156109d757600080fd5b81019080803573ffffffffffffffffffffffffffffffffffffffff169060200190929190505050612783565b005b348015610a1157600080fd5b50610a4860048036036040811015610a2857600080fd5b810190808035906020019092919080359060200190929190505050612889565b005b348015610a5657600080fd5b50610a5f612ccc565b005b610b3760048036036060811015610a7757600080fd5b8101908080359060200190640100000000811115610a9457600080fd5b820183602082011115610aa657600080fd5b80359060200191846001830284011164010000000083111715610ac857600080fd5b909192939192939080359060200190640100000000811115610ae957600080fd5b820183602082011115610afb57600080fd5b80359060200191846001830284011164010000000083111715610b1d57600080fd5b909192939192939080359060200190929190505050612ec2565b005b348015610b4557600080fd5b50610b7260048036036020811015610b5c57600080fd5b8101908080359060200190929190505050612fbe565b6040518080602001828103825283818151815260200191508051906020019060200280838360005b83811015610bb5578082015181840152602081019050610b9a565b505050509050019250505060405180910390f35b348015610bd557600080fd5b50610bde613140565b6040518082815260200191505060405180910390f35b348015610c0057600080fd5b50610c2d60048036036020811015610c1757600080fd5b810190808035906020019092919050505061314d565b60405180848152602001838152602001828152602001935050505060405180910390f35b348015610c5d57600080fd5b50610c9460048036036040811015610c7457600080fd5b810190808035906020019092919080359060200190929190505050613220565b6040518084151515158152602001838152602001828152602001935050505060405180910390f35b348015610cc857600080fd5b50610d0b60048036036020811015610cdf57600080fd5b81019080803573ffffffffffffffffffffffffffffffffffffffff1690602001909291905050506132fb565b005b60006006600083815260200190815260200160002090508060060160009054906101000a900460ff16610d3f57600080fd5b60008211610d4c57600080fd5b80600401544211610d5c57600080fd5b60008060009054906101000a900473ffffffffffffffffffffffffffffffffffffffff1673ffffffffffffffffffffffffffffffffffffffff1663a80209736040518163ffffffff1660e01b815260040160206040518083038186803b158015610dc557600080fd5b505afa158015610dd9573d6000803e3d6000fd5b505050506040513d6020811015610def57600080fd5b810190808051906020019092919050505090506064610e0d8461250a565b10610f1f5760018260060160016101000a81548160ff0219169083151502179055508073ffffffffffffffffffffffffffffffffffffffff1663a9059cbb8360020160009054906101000a900473ffffffffffffffffffffffffffffffffffffffff1684600501546040518363ffffffff1660e01b8152600401808373ffffffffffffffffffffffffffffffffffffffff1673ffffffffffffffffffffffffffffffffffffffff16815260200182815260200192505050602060405180830381600087803b158015610ede57600080fd5b505af1158015610ef2573d6000803e3d6000fd5b505050506040513d6020811015610f0857600080fd5b810190808051906020019092919050505050610fff565b600060076000858152602001908152602001600020905060008090505b8180549050811015610ffc57818181548110610f5457fe5b906000526020600020906002020160010154600a6000848481548110610f7657fe5b906000526020600020906002020160000160009054906101000a900473ffffffffffffffffffffffffffffffffffffffff1673ffffffffffffffffffffffffffffffffffffffff1673ffffffffffffffffffffffffffffffffffffffff168152602001908152602001600020600082825401925050819055508080600101915050610f3c565b50505b60006009600085815260200190815260200160002054905060016005805490500381141561104257600580548091906001900361103c91906134bb565b506110cb565b600060056001600580549050038154811061105957fe5b90600052602060002001549050806005838154811061107457fe5b906000526020600020018190555081600960008381526020019081526020016000208190555060058054809190600190036110af91906134bb565b5060006009600087815260200190815260200160002081905550505b60008360060160006101000a81548160ff0219169083151502179055507f769c308d4fdba3700f25352c34ea872c7dbe3a52475adf9650f609457ae71176848460060160019054906101000a900460ff1685600501546040518084815260200183151515158152602001828152602001935050505060405180910390a16000836005018190555050505050565b6000600a60008373ffffffffffffffffffffffffffffffffffffffff1673ffffffffffffffffffffffffffffffffffffffff168152602001908152602001600020549050919050565b6000806000806111b2600354611835565b809350819450829550505050826111cf576000935050505061125f565b610e10420381111561124a576000607890505b610960811015611248576111fd600354603c83024203613220565b8094508195508296505050508380156112195750610e10420382105b1561122857610960905061123b565b8361123a57600094505050505061125f565b5b80806001019150506111e2565b505b600454606483028161125857fe5b0493505050505b90565b6000809054906101000a900473ffffffffffffffffffffffffffffffffffffffff1673ffffffffffffffffffffffffffffffffffffffff16632639e0b034836040518363ffffffff1660e01b8152600401808281526020019150506000604051808303818588803b1580156112d657600080fd5b505af11580156112ea573d6000803e3d6000fd5b505050505050565b60008060009054906101000a900473ffffffffffffffffffffffffffffffffffffffff1673ffffffffffffffffffffffffffffffffffffffff1663a80209736040518163ffffffff1660e01b815260040160206040518083038186803b15801561135b57600080fd5b505afa15801561136f573d6000803e3d6000fd5b505050506040513d602081101561138557600080fd5b8101908080519060200190929190505050905090565b60608060008060008060008060006113b16134e7565b600660008c815260200190815260200160002060405180610100016040529081600082018054600181600116156101000203166002900480601f0160208091040260200160405190810160405280929190818152602001828054600181600116156101000203166002900480156114695780601f1061143e57610100808354040283529160200191611469565b820191906000526020600020905b81548152906001019060200180831161144c57829003601f168201915b50505050508152602001600182018054600181600116156101000203166002900480601f01602080910402602001604051908101604052809291908181526020018280546001816001161561010002031660029004801561150b5780601f106114e05761010080835404028352916020019161150b565b820191906000526020600020905b8154815290600101906020018083116114ee57829003601f168201915b505050505081526020016002820160009054906101000a900473ffffffffffffffffffffffffffffffffffffffff1673ffffffffffffffffffffffffffffffffffffffff1673ffffffffffffffffffffffffffffffffffffffff1681526020016003820154815260200160048201548152602001600582015481526020016006820160009054906101000a900460ff161515151581526020016006820160019054906101000a900460ff1615151515815250509050806000015181602001518260400151836060015184608001518560a001518660c001518760e00151886060015168056bc75e2d631000006115ff6111a1565b8b60a00151028161160c57fe5b046064028161161757fe5b04889850879750995099509950995099509950995099509950509193959799909294969850565b6060600580548060200260200160405190810160405280929190818152602001828054801561168c57602002820191906000526020600020905b815481526020019060010190808311611678575b5050505050905090565b6060806060600860008573ffffffffffffffffffffffffffffffffffffffff1673ffffffffffffffffffffffffffffffffffffffff168152602001908152602001600020805480602002602001604051908101604052809291908181526020016000905b82821015611740578382906000526020600020906002020160405180604001604052908160008201548152602001600182015481525050815260200190600101906116fa565b50505050905080516040519080825280602002602001820160405280156117765781602001602082028038833980820191505090505b50925080516040519080825280602002602001820160405280156117a95781602001602082028038833980820191505090505b50915060008090505b8151811015611828578181815181106117c757fe5b6020026020010151600001518482815181106117df57fe5b6020026020010181815250508181815181106117f757fe5b60200260200101516020015183828151811061180f57fe5b60200260200101818152505080806001019150506117b2565b5082829250925050915091565b60008060008060009054906101000a900473ffffffffffffffffffffffffffffffffffffffff1673ffffffffffffffffffffffffffffffffffffffff16633fcad964856040518263ffffffff1660e01b81526004018082815260200191505060606040518083038186803b1580156118ac57600080fd5b505afa1580156118c0573d6000803e3d6000fd5b505050506040513d60608110156118d657600080fd5b810190808051906020019092919080519060200190929190805190602001909291905050509250925092509193909250565b60008060009054906101000a900473ffffffffffffffffffffffffffffffffffffffff1673ffffffffffffffffffffffffffffffffffffffff1663a80209736040518163ffffffff1660e01b815260040160206040518083038186803b15801561197157600080fd5b505afa158015611985573d6000803e3d6000fd5b505050506040513d602081101561199b57600080fd5b810190808051906020019092919050505090506000821115611b20578073ffffffffffffffffffffffffffffffffffffffff166323b872dd3330856040518463ffffffff1660e01b8152600401808473ffffffffffffffffffffffffffffffffffffffff1673ffffffffffffffffffffffffffffffffffffffff1681526020018373ffffffffffffffffffffffffffffffffffffffff1673ffffffffffffffffffffffffffffffffffffffff1681526020018281526020019350505050602060405180830381600087803b158015611a7257600080fd5b505af1158015611a86573d6000803e3d6000fd5b505050506040513d6020811015611a9c57600080fd5b8101908080519060200190929190505050611b1f576040517f08c379a000000000000000000000000000000000000000000000000000000000815260040180806020018281038252600f8152602001807f5472616e73666572206661696c6564000000000000000000000000000000000081525060200191505060405180910390fd5b5b8073ffffffffffffffffffffffffffffffffffffffff16633fff28168888888888886040518763ffffffff1660e01b81526004018080602001806020018581526020018481526020018381038352898982818152602001925080828437600081840152601f19601f8201169050808301925050508381038252878782818152602001925080828437600081840152601f19601f82011690508083019250505098505050505050505050600060405180830381600087803b158015611be357600080fd5b505af1158015611bf7573d6000803e3d6000fd5b5050505050505050505050565b60045481565b60008060008060009054906101000a900473ffffffffffffffffffffffffffffffffffffffff1673ffffffffffffffffffffffffffffffffffffffff16635f059f3e86866040518363ffffffff1660e01b8152600401808381526020018281526020019250505060606040518083038186803b158015611c8957600080fd5b505afa158015611c9d573d6000803e3d6000fd5b505050506040513d6060811015611cb357600080fd5b810190808051906020019092919080519060200190929190805190602001909291905050509250925092509250925092565b6000806000809054906101000a900473ffffffffffffffffffffffffffffffffffffffff1673ffffffffffffffffffffffffffffffffffffffff1663a80209736040518163ffffffff1660e01b815260040160206040518083038186803b158015611d4f57600080fd5b505afa158015611d63573d6000803e3d6000fd5b505050506040513d6020811015611d7957600080fd5b810190808051906020019092919050505090508073ffffffffffffffffffffffffffffffffffffffff166323b872dd3330670de0b6b3a76400006040518463ffffffff1660e01b8152600401808473ffffffffffffffffffffffffffffffffffffffff1673ffffffffffffffffffffffffffffffffffffffff1681526020018373ffffffffffffffffffffffffffffffffffffffff1673ffffffffffffffffffffffffffffffffffffffff1681526020018281526020019350505050602060405180830381600087803b158015611e4f57600080fd5b505af1158015611e63573d6000803e3d6000fd5b505050506040513d6020811015611e7957600080fd5b8101908080519060200190929190505050611edf576040517f08c379a00000000000000000000000000000000000000000000000000000000081526004018080602001828103825260288152602001806136366028913960400191505060405180910390fd5b601e8310611eec57600080fd5b600254915060026000815480929190600101919050555060405180610100016040528089898080601f016020809104026020016040519081016040528093929190818152602001838380828437600081840152601f19601f82011690508083019250505050505050815260200187878080601f016020809104026020016040519081016040528093929190818152602001838380828437600081840152601f19601f8201169050808301925050505050505081526020013373ffffffffffffffffffffffffffffffffffffffff168152602001858152602001620151808502420181526020016000815260200160011515815260200160001515815250600660008481526020019081526020016000206000820151816000019080519060200190612018929190613546565b506020820151816001019080519060200190612035929190613546565b5060408201518160020160006101000a81548173ffffffffffffffffffffffffffffffffffffffff021916908373ffffffffffffffffffffffffffffffffffffffff160217905550606082015181600301556080820151816004015560a0820151816005015560c08201518160060160006101000a81548160ff02191690831515021790555060e08201518160060160016101000a81548160ff0219169083151502179055509050506005805490506009600084815260200190815260200160002081905550600582908060018154018082558091505090600182039060005260206000200160009091929091909150555061212f6135c6565b604051806040016040528084815260200160008152509050600860003373ffffffffffffffffffffffffffffffffffffffff1673ffffffffffffffffffffffffffffffffffffffff168152602001908152602001600020819080600181540180825580915050906001820390600052602060002090600202016000909192909190915060008201518160000155602082015181600101555050507f2139066e053196905e5351420c0068d9eaa024551a0b8198eeb4cbaa120c97d1838a8a8a8a8a8a6040518088815260200180602001806020018581526020018481526020018381038352898982818152602001925080828437600081840152601f19601f8201169050808301925050508381038252878782818152602001925080828437600081840152601f19601f820116905080830192505050995050505050505050505060405180910390a150509695505050505050565b60008060009054906101000a900473ffffffffffffffffffffffffffffffffffffffff1673ffffffffffffffffffffffffffffffffffffffff1663a80209736040518163ffffffff1660e01b815260040160206040518083038186803b1580156122ed57600080fd5b505afa158015612301573d6000803e3d6000fd5b505050506040513d602081101561231757600080fd5b810190808051906020019092919050505090508073ffffffffffffffffffffffffffffffffffffffff166323b872dd3330856040518463ffffffff1660e01b8152600401808473ffffffffffffffffffffffffffffffffffffffff1673ffffffffffffffffffffffffffffffffffffffff1681526020018373ffffffffffffffffffffffffffffffffffffffff1673ffffffffffffffffffffffffffffffffffffffff1681526020018281526020019350505050602060405180830381600087803b1580156123e557600080fd5b505af11580156123f9573d6000803e3d6000fd5b505050506040513d602081101561240f57600080fd5b8101908080519060200190929190505050612492576040517f08c379a000000000000000000000000000000000000000000000000000000000815260040180806020018281038252600f8152602001807f5472616e73666572206661696c6564000000000000000000000000000000000081525060200191505060405180910390fd5b8073ffffffffffffffffffffffffffffffffffffffff1663752d49a184846040518363ffffffff1660e01b81526004018083815260200182815260200192505050600060405180830381600087803b1580156124ed57600080fd5b505af1158015612501573d6000803e3d6000fd5b50505050505050565b60006125146134e7565b6006600084815260200190815260200160002060405180610100016040529081600082018054600181600116156101000203166002900480601f0160208091040260200160405190810160405280929190818152602001828054600181600116156101000203166002900480156125cc5780601f106125a1576101008083540402835291602001916125cc565b820191906000526020600020905b8154815290600101906020018083116125af57829003601f168201915b50505050508152602001600182018054600181600116156101000203166002900480601f01602080910402602001604051908101604052809291908181526020018280546001816001161561010002031660029004801561266e5780601f106126435761010080835404028352916020019161266e565b820191906000526020600020905b81548152906001019060200180831161265157829003601f168201915b505050505081526020016002820160009054906101000a900473ffffffffffffffffffffffffffffffffffffffff1673ffffffffffffffffffffffffffffffffffffffff1673ffffffffffffffffffffffffffffffffffffffff1681526020016003820154815260200160048201548152602001600582015481526020016006820160009054906101000a900460ff161515151581526020016006820160019054906101000a900460ff16151515158152505090508060600151670de0b6b3a76400006127396111a1565b8360a00151028161274657fe5b048161274e57fe5b04915050919050565b600160009054906101000a900473ffffffffffffffffffffffffffffffffffffffff1681565b60035481565b600160009054906101000a900473ffffffffffffffffffffffffffffffffffffffff1673ffffffffffffffffffffffffffffffffffffffff163373ffffffffffffffffffffffffffffffffffffffff1614612846576040517f08c379a00000000000000000000000000000000000000000000000000000000081526004018080602001828103825260138152602001807f53656e646572206973206e6f74206f776e65720000000000000000000000000081525060200191505060405180910390fd5b806000806101000a81548173ffffffffffffffffffffffffffffffffffffffff021916908373ffffffffffffffffffffffffffffffffffffffff16021790555050565b6000811161289657600080fd5b60006006600084815260200190815260200160002090508060060160009054906101000a900460ff166128c857600080fd5b60008060009054906101000a900473ffffffffffffffffffffffffffffffffffffffff1673ffffffffffffffffffffffffffffffffffffffff1663a80209736040518163ffffffff1660e01b815260040160206040518083038186803b15801561293157600080fd5b505afa158015612945573d6000803e3d6000fd5b505050506040513d602081101561295b57600080fd5b810190808051906020019092919050505090508073ffffffffffffffffffffffffffffffffffffffff166323b872dd3330866040518463ffffffff1660e01b8152600401808473ffffffffffffffffffffffffffffffffffffffff1673ffffffffffffffffffffffffffffffffffffffff1681526020018373ffffffffffffffffffffffffffffffffffffffff1673ffffffffffffffffffffffffffffffffffffffff1681526020018281526020019350505050602060405180830381600087803b158015612a2957600080fd5b505af1158015612a3d573d6000803e3d6000fd5b505050506040513d6020811015612a5357600080fd5b8101908080519060200190929190505050612ad6576040517f08c379a000000000000000000000000000000000000000000000000000000000815260040180806020018281038252600e8152602001807f46756e64696e67204661696c656400000000000000000000000000000000000081525060200191505060405180910390fd5b612ade6135c6565b6040518060400160405280868152602001858152509050600860003373ffffffffffffffffffffffffffffffffffffffff1673ffffffffffffffffffffffffffffffffffffffff16815260200190815260200160002081908060018154018082558091505090600182039060005260206000209060020201600090919290919091506000820151816000015560208201518160010155505050838360050160008282540192505081905550612b916135e0565b60405180604001604052803373ffffffffffffffffffffffffffffffffffffffff16815260200186815250905060076000878152602001908152602001600020819080600181540180825580915050906001820390600052602060002090600202016000909192909190915060008201518160000160006101000a81548173ffffffffffffffffffffffffffffffffffffffff021916908373ffffffffffffffffffffffffffffffffffffffff160217905550602082015181600101555050507f5b47478b1a9bcccc0683800f537f513a17c66ebb7a9b7e2773053b37fc83bb05863387604051808481526020018373ffffffffffffffffffffffffffffffffffffffff1673ffffffffffffffffffffffffffffffffffffffff168152602001828152602001935050505060405180910390a1505050505050565b60008060009054906101000a900473ffffffffffffffffffffffffffffffffffffffff1673ffffffffffffffffffffffffffffffffffffffff1663a80209736040518163ffffffff1660e01b815260040160206040518083038186803b158015612d3557600080fd5b505afa158015612d49573d6000803e3d6000fd5b505050506040513d6020811015612d5f57600080fd5b810190808051906020019092919050505090506000600a60003373ffffffffffffffffffffffffffffffffffffffff1673ffffffffffffffffffffffffffffffffffffffff1681526020019081526020016000205490506000600a60003373ffffffffffffffffffffffffffffffffffffffff1673ffffffffffffffffffffffffffffffffffffffff168152602001908152602001600020819055508173ffffffffffffffffffffffffffffffffffffffff1663a9059cbb33836040518363ffffffff1660e01b8152600401808373ffffffffffffffffffffffffffffffffffffffff1673ffffffffffffffffffffffffffffffffffffffff16815260200182815260200192505050602060405180830381600087803b158015612e8257600080fd5b505af1158015612e96573d6000803e3d6000fd5b505050506040513d6020811015612eac57600080fd5b8101908080519060200190929190505050505050565b6000809054906101000a900473ffffffffffffffffffffffffffffffffffffffff1673ffffffffffffffffffffffffffffffffffffffff1663bb19e2963487878787876040518763ffffffff1660e01b81526004018080602001806020018481526020018381038352888882818152602001925080828437600081840152601f19601f8201169050808301925050508381038252868682818152602001925080828437600081840152601f19601f8201169050808301925050509750505050505050506000604051808303818588803b158015612f9e57600080fd5b505af1158015612fb2573d6000803e3d6000fd5b50505050505050505050565b60608060076000848152602001908152602001600020805480602002602001604051908101604052809291908181526020016000905b8282101561308657838290600052602060002090600202016040518060400160405290816000820160009054906101000a900473ffffffffffffffffffffffffffffffffffffffff1673ffffffffffffffffffffffffffffffffffffffff1673ffffffffffffffffffffffffffffffffffffffff16815260200160018201548152505081526020019060010190612ff4565b50505050905080516040519080825280602002602001820160405280156130bc5781602001602082028038833980820191505090505b50915060008090505b8151811015613139578181815181106130da57fe5b6020026020010151600001518382815181106130f257fe5b602002602001019073ffffffffffffffffffffffffffffffffffffffff16908173ffffffffffffffffffffffffffffffffffffffff168152505080806001019150506130c5565b5050919050565b6000600160025403905090565b60008060008060009054906101000a900473ffffffffffffffffffffffffffffffffffffffff1673ffffffffffffffffffffffffffffffffffffffff1663d09cc57e856040518263ffffffff1660e01b81526004018082815260200191505060606040518083038186803b1580156131c457600080fd5b505afa1580156131d8573d6000803e3d6000fd5b505050506040513d60608110156131ee57600080fd5b810190808051906020019092919080519060200190929190805190602001909291905050509250925092509193909250565b60008060008060009054906101000a900473ffffffffffffffffffffffffffffffffffffffff1673ffffffffffffffffffffffffffffffffffffffff1663d269a83c86866040518363ffffffff1660e01b8152600401808381526020018281526020019250505060606040518083038186803b15801561329f57600080fd5b505afa1580156132b3573d6000803e3d6000fd5b505050506040513d60608110156132c957600080fd5b810190808051906020019092919080519060200190929190805190602001909291905050509250925092509250925092565b600160009054906101000a900473ffffffffffffffffffffffffffffffffffffffff1673ffffffffffffffffffffffffffffffffffffffff163373ffffffffffffffffffffffffffffffffffffffff16146133be576040517f08c379a00000000000000000000000000000000000000000000000000000000081526004018080602001828103825260138152602001807f53656e646572206973206e6f74206f776e65720000000000000000000000000081525060200191505060405180910390fd5b7f8be0079c531659141344cd1fd0a4f28419497f9722a3daafe3b4186f6b6457e0600160009054906101000a900473ffffffffffffffffffffffffffffffffffffffff1682604051808373ffffffffffffffffffffffffffffffffffffffff1673ffffffffffffffffffffffffffffffffffffffff1681526020018273ffffffffffffffffffffffffffffffffffffffff1673ffffffffffffffffffffffffffffffffffffffff1681526020019250505060405180910390a180600160006101000a81548173ffffffffffffffffffffffffffffffffffffffff021916908373ffffffffffffffffffffffffffffffffffffffff16021790555050565b8154818355818111156134e2578183600052602060002091820191016134e19190613610565b5b505050565b6040518061010001604052806060815260200160608152602001600073ffffffffffffffffffffffffffffffffffffffff1681526020016000815260200160008152602001600081526020016000151581526020016000151581525090565b828054600181600116156101000203166002900490600052602060002090601f016020900481019282601f1061358757805160ff19168380011785556135b5565b828001600101855582156135b5579182015b828111156135b4578251825591602001919060010190613599565b5b5090506135c29190613610565b5090565b604051806040016040528060008152602001600081525090565b6040518060400160405280600073ffffffffffffffffffffffffffffffffffffffff168152602001600081525090565b61363291905b8082111561362e576000816000905550600101613616565b5090565b9056fe46656520746f206372656174652070726f706f73616c206661696c656420746f207472616e666572a165627a7a72305820cfd4146573cbcb05038417dbedf555384405e5e9df6c008928bd6aa300144bf20029",
  "source": "pragma solidity >=0.4.21;\r\nimport \"usingtellor/contracts/UsingTellor.sol\";\r\n\r\n/**\r\n * @title Tellor Fund\r\n * @notice Allows the Tellor communtiy to propose and fund different \r\n * activities like paid AMA's, listing fees influencer's interviews.\r\n * The proposal is originally funded by the creator and if it fails to \r\n * reach the minimum threshold it refunds the funds to the users that \"voted\"\r\n */\r\n\r\ncontract TellorFund is UsingTellor{\r\n    /*Variables*/\r\n\tuint private proposalCount;\r\n\tuint public tellorPriceID; //??\r\n\tuint public granularity; //??\r\n\tuint[] openProposals;\r\n\r\n\tstruct Proposal{\r\n\t\tstring title;\r\n\t\tstring description;\r\n\t\taddress owner;\r\n\t\tuint minAmountUSD;\r\n\t\tuint expirationDate;\r\n\t\tuint trbBalance;\r\n\t\tbool open;\r\n\t\tbool passed;\r\n\t}\r\n\r\n\tstruct Funder{\r\n\t\taddress funder;\r\n\t\tuint amount;\r\n\t}\r\n\r\n\tstruct Statement{\r\n\t\tuint id;\r\n\t\tuint amount;\r\n\t}\r\n\r\n\tmapping(uint => Proposal) idToProposal;\r\n\tmapping(uint => Funder[]) idToFunders;\r\n\tmapping(address => Statement[]) addressToStatements;//???\r\n\tmapping(uint => uint) idToOpenIndex;\r\n\tmapping(address => uint) availableForWithdraw;\r\n\r\n    /*Events*/\r\n\tevent NewProposal(uint _id,string _title,string _desc,uint _minAmountUSD,uint _daystilComplete);\r\n\tevent ProposalFunded(uint _id, address _funder, uint _amount);\r\n\tevent ProposalClosed(uint _id, bool _funded, uint _amount);\r\n\r\n    /*\r\n    * @dev Sets the usercontract, tellor's request data Id and \r\n    * amount of decimals to include(granularity)\r\n    * @param _userContract is the userContract address for Tellor\r\n    * @param _tellorPriceID is Tellor's request ID to read data from ??\r\n    * @param _granularity is the amount of decimals to include in the price feed\r\n    */\r\n    constructor(address _userContract, uint _tellorPriceID, uint _granularity) public UsingTellor(_userContract){\r\n    \tproposalCount = 1;\r\n    \ttellorPriceID = _tellorPriceID;\r\n    \tgranularity = _granularity;\r\n    \topenProposals.length++;\r\n    }\r\n\r\n\r\n    /*\r\n    * @dev Creates a proposoal\r\n    * @param _title is the proposal's title\r\n    * @param _desc is the proposal description\r\n    * @param _minAmountUSD is the minimun USD threshold to fund before the proposal goes to a vote???\r\n    * @param _daystilComplete number of days allowed for funding???\r\n    * @return proposal Id\r\n    */\r\n    //be sure to approve first\r\n\tfunction createProposal(string calldata _title, string calldata _desc,uint _minAmountUSD, uint _daystilComplete) external returns(uint _id){\r\n\t\tTellor _tellor = Tellor(tellorUserContract.tellorStorageAddress());\r\n        require(_tellor.transferFrom(msg.sender,address(this),1e18), \"Fee to create proposal failed to tranfer\");\r\n\t\trequire(_daystilComplete < 30);\r\n\t\t_id = proposalCount;\r\n\t\tproposalCount++;\r\n\t\tidToProposal[_id] = Proposal({\r\n\t\t\ttitle:_title,\r\n\t\t\tdescription:_desc,\r\n\t\t\towner:msg.sender,\r\n\t\t\tminAmountUSD:_minAmountUSD,\r\n\t\t\texpirationDate:now + _daystilComplete * 86400,\r\n\t\t\ttrbBalance:0,\r\n\t\t\topen:true,\r\n\t\t\tpassed:false\r\n\t\t});\r\n\t\tidToOpenIndex[_id] = openProposals.length;\r\n\t\topenProposals.push(_id);\r\n\t\tStatement memory thisStatement= Statement({\r\n        \tid:_id,\r\n        \tamount:0\r\n        });\r\n        addressToStatements[msg.sender].push(thisStatement);//what is the statememt???\r\n\r\n\r\n\temit NewProposal(_id,_title,_desc,_minAmountUSD,_daystilComplete);\r\n\t}\r\n\r\n    /*\r\n    * @dev Funds a specified proposoal\r\n    * @param _id is the proposal Id\r\n    * @param _amountTRB amount of TRB to fund \r\n    */\r\n\tfunction fund(uint _id, uint _amountTRB) external {\r\n\t\trequire(_amountTRB > 0);\r\n\t\tProposal storage thisProp = idToProposal[_id];\r\n\t\trequire(thisProp.open);\r\n\t\tTellor _tellor = Tellor(tellorUserContract.tellorStorageAddress());\r\n        require(_tellor.transferFrom(msg.sender,address(this),_amountTRB), \"Funding Failed\");\r\n        Statement memory thisStatement= Statement({\r\n        \tid:_id,\r\n        \tamount:_amountTRB\r\n        \t});\r\n        addressToStatements[msg.sender].push(thisStatement);\r\n        thisProp.trbBalance += _amountTRB;\r\n\r\n        Funder memory thisFunder = Funder({\r\n        \tfunder:msg.sender,\r\n        \tamount:_amountTRB\r\n        });\r\n        idToFunders[_id].push(thisFunder);\r\n        emit ProposalFunded(_id,msg.sender,_amountTRB);\r\n\r\n\t}\r\n\r\n    /*\r\n    * @dev Closes the specified proposal. Closes the proposal, it makes the funders \r\n    * funds available for withdraw if the proposal fails, and updates the proposal array. \r\n    * @param _id is the proposal id\r\n    */\r\n\tfunction closeProposal(uint _id) external{\r\n\t\tProposal storage thisProp = idToProposal[_id];\r\n\t\trequire(thisProp.open);\r\n\t\trequire(_id > 0);\r\n\t\trequire(now > thisProp.expirationDate);\r\n\t\tTellor _tellor = Tellor(tellorUserContract.tellorStorageAddress());\r\n\t\tif(percentFunded(_id) >= 100){\r\n\t\t\tthisProp.passed = true;\r\n\t\t\t_tellor.transfer(thisProp.owner,thisProp.trbBalance);\r\n\t\t}\r\n\t\telse{\r\n\t\t\tFunder[] storage theseFunders = idToFunders[_id];\r\n\t\t\tfor(uint i=0;i < theseFunders.length;i++){\r\n\t\t\t\tavailableForWithdraw[theseFunders[i].funder] += theseFunders[i].amount; \r\n\t\t\t}\r\n\t\t}\r\n\t\tuint _index = idToOpenIndex[_id];\r\n\t\tif(_index == openProposals.length - 1){\r\n\t\t\topenProposals.length--;\r\n\t\t}\r\n\t\telse{\r\n\t\t\tuint _lastId = openProposals[openProposals.length - 1];\r\n\t\t\topenProposals[_index] = _lastId;\r\n\t\t\tidToOpenIndex[_lastId] = _index;\r\n\t\t\topenProposals.length--;\r\n\t\t\tidToOpenIndex[_id] = 0;\r\n\t\t}\r\n\t\tthisProp.open = false;\r\n\t\temit ProposalClosed(_id,thisProp.passed,thisProp.trbBalance);\r\n\t\tthisProp.trbBalance = 0;\r\n\t}\r\n\r\n    /*\r\n    * @dev Allows funders to withdraw their funds if the proposal was unsuccessful\r\n    */\r\n \tfunction withdrawMoney() external{\r\n \t\tTellor _tellor = Tellor(tellorUserContract.tellorStorageAddress());\r\n \t\tuint _amt = availableForWithdraw[msg.sender];\r\n \t\tavailableForWithdraw[msg.sender] =0;\r\n\t\t_tellor.transfer(msg.sender,_amt);\r\n \t}\r\n\r\n    /*\r\n    * @dev Getter function for all open proposals\r\n    * @returns an array with all open proposals\r\n    */\r\n\tfunction getAllOpenProposals() external view returns(uint[] memory){\r\n\t\treturn openProposals;\r\n\t}\r\n\r\n    /*\r\n    * @dev Getter function for amount available for withdraw by funder(specified address)\r\n    * @param _user is the funder address \r\n    * @return amount available for withdraw for the specified user address\r\n    */\r\n\tfunction getAvailableForWithdraw(address _user) external returns(uint){\r\n\t\treturn availableForWithdraw[_user];\r\n\t}\r\n\r\n\r\n    /*\r\n    * @dev Getter function for the proposal information by the id\r\n    * @param _id is the proposal id \r\n    * @return title of proposal\r\n    * @return description of proposal\r\n    * @return owner of proposal\r\n    * @return minAmountUSD for proposal to pass\r\n    * @return expirationDate of proposal\r\n    * @return trbBalance of proposal\r\n    * @return open- bool true if proposal is still open\r\n    * @return passed- bool true if proposal passed\r\n    * @return percentFunded \r\n    */\r\n\tfunction getProposalById(uint _id) external view returns(string memory,string memory,address,uint,uint,uint,bool,bool,uint){\r\n\t\tProposal memory t = idToProposal[_id];\r\n\t\treturn (t.title,t.description,t.owner,t.minAmountUSD,t.expirationDate,t.trbBalance,t.open,t.passed,100 * (t.trbBalance* viewTellorPrice()/1e20) / t.minAmountUSD);\r\n\t}\r\n\r\n\r\n    /*\r\n    * @dev Getter function for all proposals funded by the specified address\r\n    * @param _funder is the funder address to look up\r\n    * @return two arrays containing all proposals and amounts contributed to each by the specified funder address\r\n    */\r\n\tfunction getProposalsByAddress(address _funder) public view returns(uint[] memory propArray,uint[] memory amountArray){\r\n\t\tStatement[] memory theseStatements = addressToStatements[_funder];\r\n\t\tpropArray = new uint[](theseStatements.length);\r\n\t\tamountArray = new uint[](theseStatements.length);\r\n\t\tfor(uint i=0;i < theseStatements.length;i++){\r\n\t\t\tpropArray[i] = theseStatements[i].id;\r\n\t\t\tamountArray[i]= theseStatements[i].amount;\r\n\t\t}\r\n\t\treturn (propArray,amountArray);\r\n\t}\r\n\r\n\r\n    /*\r\n    * @dev Getter function for funder address by proposal id \r\n    * @param _id is the proposal id\r\n    * @return array of all addresses that have funded the specified proposoal id\r\n    */\r\n\tfunction getAddressesById(uint _id) public view returns(address[] memory addArray){\r\n\t\t\tFunder[] memory theseFunders = idToFunders[_id];\r\n\t\t\taddArray = new address[](theseFunders.length);\r\n\t\t\tfor(uint i=0;i < theseFunders.length;i++){\r\n\t\t\t\taddArray[i] = theseFunders[i].funder;\r\n\t\t\t}\r\n\t}\r\n\r\n    /*\r\n    * @dev Gets the percent funded for the specified proposal\r\n    * @param _id is the proposal id\r\n    * @return the percent funded for the specified proposal id\r\n    */\r\n\tfunction percentFunded(uint _id) public view returns(uint){\r\n\t\t\tProposal memory thisProp = idToProposal[_id];\r\n\t\t\treturn  (thisProp.trbBalance* viewTellorPrice()/1e18) / thisProp.minAmountUSD ;\r\n\t}\r\n\r\n\r\n    /*\r\n    * @dev Gets Tellor's Price for the request ID specified in the constructor\r\n    * @returns Tellors price value\r\n    */\r\n\tfunction viewTellorPrice() public view returns(uint){\r\n\t\tbool _didget;\r\n\t\tuint _value;\r\n\t\tuint _timestamp;\r\n\t\t(_didget,_value,_timestamp) = getCurrentValue(tellorPriceID);\r\n\t\tif(!_didget){\r\n\t\t\treturn 0;\r\n\t\t}\r\n\t\telse if(_timestamp > now - 60 minutes){\r\n\t\t\tfor(uint i=120;i< 2400;i++){\r\n\t\t\t\t(_didget,_value,_timestamp) = getAnyDataAfter(tellorPriceID,now - i * 60);\r\n\t\t\t\t//if the value was obtained within the hour, stop looping.\r\n\t\t\t\tif(_didget && _timestamp < now - 60 minutes){\r\n\t\t\t\t\ti = 2400;\r\n\t\t\t\t}\r\n\t\t\t\telse if(!_didget){\r\n\t\t\t\t\treturn 0;\r\n\t\t\t\t}\r\n\t\t\t}\r\n\r\n\t\t}\r\n\t\treturn _value*100/granularity;\r\n\t}\r\n\r\n    /*\r\n    * @dev Getter for proposal count\r\n    * @return the number of proposals\r\n    */\r\n\tfunction getProposalCount() public view returns(uint){\r\n\t\treturn proposalCount -1;\r\n\t}\r\n\r\n\t/*\r\n    * @dev Getter function for Tellor's address\r\n    * @param the Tellor's Master address\r\n    */\r\n\tfunction tellorAddress() public view returns(address){\r\n\t\treturn tellorUserContract.tellorStorageAddress();\r\n\t}\r\n}\r\n",
  "sourcePath": "C:/company/code/tellor.fund/contracts/TellorFund.sol",
  "compiler": {
    "name": "solc",
    "version": "0.5.8+commit.23d335f2.Emscripten.clang"
  },
  "schemaVersion": "3.0.16",
  "updatedAt": "2020-03-10T18:09:56.520Z",
  "devdoc": {
    "methods": {
      "addTip(uint256,uint256)": {
        "details": "Allows the user to tip miners for the specified request using Tributes\r",
        "params": {
          "_requestId": "to tip\r",
          "_tip": "amount\r"
        }
      },
      "addTipWithEther(uint256)": {
        "details": "Allows user to add tip with Ether by sending the ETH to the userContract and exchanging it for Tributes\r at the price specified by the userContract owner.\r",
        "params": {
          "_requestId": "to tip\r"
        }
      },
      "getAnyDataAfter(uint256,uint256)": {
        "details": "Allows the user to get the first value for the requestId after the specified timestamp\r",
        "params": {
          "_requestId": "is the requestId to look up the value for\r",
          "_timestamp": "after which to search for first verified value\r"
        },
        "return": "bool true if it is able to retreive a value, the value, and the value's timestamp\r"
      },
      "getCurrentValue(uint256)": {
        "details": "Allows the user to get the latest value for the requestId specified\r",
        "params": {
          "_requestId": "is the requestId to look up the value for\r"
        },
        "return": "bool true if it is able to retreive a value, the value, and the value's timestamp\r"
      },
      "getFirstVerifiedDataAfter(uint256,uint256)": {
        "details": "Allows the user to get the first verified value for the requestId after the specified timestamp\r",
        "params": {
          "_requestId": "is the requestId to look up the value for\r",
          "_timestamp": "after which to search for first verified value\r"
        },
        "return": "bool true if it is able to retreive a value, the value, and the value's timestamp, the timestamp after\r which it searched for the first verified value\r"
      },
      "requestData(string,string,uint256,uint256)": {
        "details": "Allows the user to submit a request for data to the oracle using Tributes\r Allowing this prevents us from increasing spread too high (since if we set the price too hight\r users will just go to an exchange and get tokens from there)\r",
        "params": {
          "_granularity": "is the number of decimals miners should include on the submitted value\r",
          "_request": "string API being requested to be mined\r",
          "_symbol": "is the short string symbol for the api request\r",
          "_tip": "amount the requester is willing to pay to be get on queue. Miners\r mine the onDeckQueryHash, or the api with the highest payout pool\r"
        }
      },
      "requestDataWithEther(string,string,uint256)": {
        "details": "Allows the user to submit a request for data to the oracle using ETH\r",
        "params": {
          "_granularity": "is the number of decimals miners should include on the submitted value\r",
          "_request": "string API being requested to be mined\r",
          "_symbol": "is the short string symbol for the api request\r"
        }
      },
      "resultFor(bytes32)": {
        "details": "Allows the user to get the latest value for the requestId specified using the \r ADO specification for the standard inteface for price oracles\r",
        "params": {
          "_bytesId": "is the ADO standarized bytes32 price/key value pair identifier\r"
        },
        "return": "the timestamp, outcome or value/ and the status code (for retreived, null, etc...)\r"
      },
      "setUserContract(address)": {
        "details": "allows owner to set the user contract address\r",
        "params": {
          "_userContract": "address\r"
        }
      },
      "transferOwnership(address)": {
        "details": "allows owner to transfer ownership\r",
        "params": {
          "_newOwner": "address\r"
        }
      }
    },
    "title": "Tellor Fund\r"
  },
  "userdoc": {
    "methods": {},
    "notice": "Allows the Tellor communtiy to propose and fund different \r activities like paid AMA's, listing fees influencer's interviews.\r The proposal is originally funded by the creator and if it fails to \r reach the minimum threshold it refunds the funds to the users that \"voted\"\r"
  }
}